S01E00005354373739365F5446545F446576656C6F706D656E742E7372656353
S113000071C000008FC000008DC000008BC00000D4
S113001089C0000087C0000085C0000083C00000C4
S113002081C000007FC000007DC000007BC00000D4
S113003079C0000077C0000075C0000073C00000E4
S113004071C000006FC000006DC000006BC00000F4
S113005069C0000067C0000065C0000083C00000E4
S113006061C00000B2C500005DC000005BC00000BC
S113007059C0000057C0000055C0000053C0000024
S113008051C000004FC000004DC000004BC0000034
S113009049C0000047C0000045C0000043C0000044
S11300A041C000003FC000003DC000003BC0000054
S11300B039C0000037C0000035C0000033C0000064
S11300C031C000002FC000002DC000002BC0000074
S11300D029C0000027C0000025C0000023C0000084
S11300E021C0000011241FBECFEFD1E2DEBFCDBF7F
S11300F000E00CBF12E0A0E0B2E0EAE9F2E100E0C7
S11301000BBF02C007900D92A835B107D9F722E0C2
S1130110A8E5B2E001C01D92A33CB207E1F7BDD34C
S11301200C944B096DCF14BC83E085BD81E08093B2
S11301306E0016BC0895F7CF0895279A94B5906879
S113014094BD94B5936094BD853618F08FEF87BD48
S113015008952FEF829FC001112464E670E077D5E3
S113016067BD08951F920F920FB60F9211242F931B
S11301703F938F939F93AF93BF938091620290912B
S11301806302A0916402B09165023091610223E0A0
S1130190230F2D3720F40196A11DB11D05C026E8BB
S11301A0230F0296A11DB11D8093620290936302F6
S11301B0A0936402B09365022093610280915D0272
S11301C090915E02A0915F02B09160020196A11D20
S11301D0B11D80935D0290935E02A0935F02B09381
S11301E06002BF91AF919F918F913F912F910F909A
S11301F00FBE0F901F901895CF9380ED4AD480E0E6
S113020078D481ED46D492D4C82F6AD480ED41D4F9
S113021080E06FD48C2F8F776CD462D4CF91089503
S113022080915802811105C024D4E6DF81E08093D7
S113023058020895CF93DF93EC0180ED2AD480E037
S113024058D481ED26D467D4982F96959695969593
S11302509E70292F220F220F920F8F70890F88838F
S11302605AD4982F92959F70990F292F220F220FFD
S1130270920F8F70890F89834ED4982F96959695F7
S113028096959670292F220F220F920F8F70890F47
S11302908A8341D4982F92959F70990F292F220F0A
S11302A0220F920F8F70890F8B8335D4982F9295DC
S11302B09F70990F292F220F220F920F8F70890F91
S11302C08C8329D4982F92959F70990F292F220FF0
S11302D0220F920F8F70890F8D8328D4982F9295B7
S11302E09F70990F292F220F220F920F8F70890F61
S11302F08E83F6D3DF91CF9108952898759A6CD3A5
S1130300289A08952898759867D3289A0895749818
S11303102FEF81EE94E0215080409040E1F700C03F
S11303200000749A2FEF80E792E0215080409040C3
S1130330E1F700C000000895AF92BF92CF92DF9220
S1130340EF92FF920F931F93CF93DF93B82EA92EB2
S1130350F62EE72ED42EC52E122F032FC6E6D2E09A
S11303608985D0DF8A2DC9DF8B2DC7DF8C2DC5DFB2
S11303708D2DC3DF8B85C6DF8E2DBFDF8F2DBDDFB7
S1130380802FBBDF812FB9DF8F81BCDFDF91CF915D
S11303901F910F91FF90EF90DF90CF90BF90AF909F
S11303A008959B01AC01C8CF0895E6E6F2E02AE285
S11303B030E0328721872BE230E0348723872CE238
S11303C030E0308727838130A9F028F0823009F1AA
S11303D0833071F10895E6E6F2E080E491E09183E0
S11303E0808380EE91E09383828386E38BDF88E4CD
S11303F084CF0895E6E6F2E080EE91E09183808375
S113040080E491E09383828386E37CDF88E275CF86
S11304100895E6E6F2E080E491E09183808380EE43
S113042091E09383828386E36DDF88E866CF089545
S1130430E6E6F2E080EE91E09183808380E491E04F
S11304409383828386E35EDF88EE57CF089575CE6B
S11304500895CF93C82F2898759A892FBDD28C2FD1
S1130460BBD2289ACF910895CF92DF92EF92FF9258
S11304700F931F93CF93DF937C01C6E6D2E02A81CA
S11304803B8121503109488159814150510960E033
S113049070E080E090E050DF2898759A8A819B8113
S11304A0892BB1F41FC0C0E0D0E0C701D2DF219690
S11304B0F80180819181C817D907B8F3FFEFCF1AEB
S11304C0DF0AF80182819381C816D90628F00AC090
S11304D0C12CD12C06E612E0F80180819181892B90
S11304E011F7ECCF289ADF91CF911F910F91FF90D4
S11304F0EF90DF90CF90089547D28DB180638DB98E
S11305001ADE05DF80EFFEDE83ECF7DE80EFFADE35
S113051086E9F3DE86E3F6DE88E6EFDE8AE3F2DEE2
S113052085E0EBDE80EBEEDE80E8E7DE86EBEADEFC
S113053080E0E3DE82E0E1DE85EBE4DE82E0DDDE26
S113054083E0DBDE80E0D9DE84E0D7DE81EBDADE37
S113055080E8D3DE80E1D1DE84EBD4DE80E0CDDE42
S113056087EBD0DE86ECC9DE85ECCCDE84E2C5DE2A
S113057084EEC8DE81E3C1DE88EEC4DE80E4BDDE45
S11305808AE8BBDE80E0B9DE80E0B7DE89E2B5DE72
S113059089E1B3DE85EAB1DE83E3AFDE82ECB2DE6D
S11305A087EAB0DE80EEAEDE80EFA7DE89E0A5DE6E
S11305B083E1A3DE82E1A1DE82E19FDE8BE29DDEA8
S11305C08CE39BDE84E499DE8BE497DE8BE195DE9D
S11305D088E193DE87E191DE8DE18FDE81E28DDEBD
S11305E081EE90DE80EF89DE89E087DE83E185DEBF
S11305F08CE083DE8DE081DE87E27FDE8BE37DDECF
S113060084E47BDE8DE479DE8BE077DE87E175DEE2
S113061087E173DE8DE171DE81E26FDE86E372DEF7
S11306208CEE6BDE80EF6EDE83EC67DE80EF6ADEDD
S113063089E663DE83E166DE81E164DE89E262DE0F
S113064080E0B3DE84E679DD80E090E00DCF0895AC
S1130650CF93DF93EA01A5DECE01FBDEDF91CF91DC
S11306600895AF92BF92CF92DF92EF92FF920F93D1
S11306701F93CF93DF934817590728F4F82FE92FD6
S1130680CA014F2F5E2F2617370728F4F62FE72FBE
S1130690B9012F2F3E2F7A01EFEFEE1AFE0AE81A66
S11306A0F90A5901EFEFAE1ABE0AA61AB70A44DED8
S11306B0A114B10481F415C0C0E0D0E0C801C9DEC2
S11306C02196EC16FD06D1F78FEFC81AD80AAC14A0
S11306D0BD0419F406C0C12CD12CE114F10461F756
S11306E0F3CFDF91CF911F910F91FF90EF90DF90A7
S11306F0CF90BF90AF9008952F923F924F925F9208
S11307006F927F928F929F92AF92BF92CF92DF921D
S1130710EF92FF920F931F93CF93DF93CDB7DEB782
S113072028970FB6F894DEBF0FBECDBF1A83098396
S11307306A01C81AD90A3901661A770A1C012B0101
S11307401C141D045CF0C114D10469F0D194C1944B
S1130750D1088FEF9FEF9C838B8307C081E090E0EB
S11307609C838B8302C01C821B82161417045CF0CA
S11307706114710469F07194619471088FEF9FEFB3
S11307809E838D8307C081E090E09E838D8302C0A9
S11307901E821D827601C614D7040CF4730157011E
S11307A09FEFA91AB90A00E010E018861F82812C75
S11307B0912C49815A81B201C1014ADF8F81988508
S11307C08C0D9D1D98878F83060D171DE816F9065D
S11307D044F48E199F0998878F838B819C81280EFE
S11307E0391EE016F10634F40E191F098D819E811D
S11307F0480E591E9FEF891A990AA814B904C8F61D
S113080028960FB6F894DEBF0FBECDBFDF91CF910F
S11308101F910F91FF90EF90DF90CF90BF90AF901A
S11308209F908F907F906F905F904F903F902F900C
S113083008958F929F92AF92BF92CF92DF92EF92E0
S1130840FF920F931F93CF93DF934C017B01EA0137
S113085069019B0151DF9601A401B701C4014CDF7A
S11308609601AE01B601C40147DF9601AE01B7019E
S1130870CE0142DFDF91CF911F910F91FF90EF9056
S1130880DF90CF90BF90AF909F908F9008950F937B
S11308901F93E7DE1F910F910895CF93DF93CDB798
S11308A0DEB7C755D1090FB6F894DEBF0FBECDBF72
S11308B080E895E246D1B4DC1FDE84E6C8DD81E041
S11308C074DD0F2EFEE08F2EF2E09F2EF02D5E01E0
S11308D088E0A80EB11C0F2EF2E2CF2EF2E0DF2E3C
S11308E0F02D7E019CE1E90EF11C08E312E03E01CB
S11308F080E3680E711C0F2EFBE24F2EF2E05F2E98
S1130900F02D1E0194E4290E311C6CD0CE01019609
S113091091DC8F8190E08053984F9F938F938E81C9
S11309201F928F938D811F928F939F928F92BF926C
S1130930AF92D6D189811F928F938A811F928F9310
S11309408B811F928F93DF92CF92FF92EF92C8D147
S11309508C811F928F931F930F937F926F92C0D1BC
S113096089811F928F938A811F928F938B811F920B
S11309708F935F924F923F922F92B2D10FB6F89419
S1130980DEBF0FBECDBFC1CF8091590290915A02F4
S1130990892B09F584B1876084B98CB580618CBDDD
S11309A08CB58F7D8CBD8CB5877F8CBD8CB58B7FD2
S11309B08CBD8CB58D7F8CBD8CB58E7F8CBD8DB57B
S11309C081608DBD8CB580648CBD81E090E0909396
S11309D05A028093590208958EBD0DB407FEFDCFCF
S11309E08EB508950F931F93CF93DF93C0E0D2E0A9
S11309F00A851B852E813F814C815D816A817B81C3
S1130A008881998116DF888599850A851B852E81C1
S1130A103F81281B390B4C815D81481B590B6A812E
S1130A207B81680F791FE881F9818E0F9F1F01DF99
S1130A30888599850C851D852E813F81215031093A
S1130A40281B390B4C815D8141505109481B590BBE
S1130A506A817B81680F791F6F5F7F4FE881F9811D
S1130A608E0F9F1F019613DFDF91CF911F910F917E
S1130A70089580915B0281110BC01092B9008CE043
S1130A808093B80084E08093BC0081E080935B0293
S1130A90089594EA9093BC00ECEBF0E090819923E4
S1130AA0ECF79091B900987F983011F09031A1F44F
S1130AB08093BB0084E88093BC00ECEBF0E0808181
S1130AC08823ECF79091B900987F983139F081E050
S1130AD0903429F480E0089581E0089580E0089539
S1130AE084E98093BC00ECEBF0E0808184FDFDCFD1
S1130AF008958093BB0084E88093BC00ECEBF0E0A5
S1130B0080818823ECF79091B900987F81E0983236
S1130B1009F480E0089584EC8093BC00ECEBF0E0F1
S1130B2080818823ECF78091BB00089584E880934A
S1130B30BC00ECEBF0E080818823ECF78091BB00F3
S1130B400895A0E0B0E0880F991FAA1FBB1F880F6B
S1130B50991FAA1FBB1F9C01AD01220F331F441F05
S1130B60551F220F331F441F551F60E074E284EFAA
S1130B7090E080D0215031093093C5002093C40007
S1130B80E1ECF0E0808188618083808180688083EB
S1130B90E2ECF0E080818660808378940895CF93BE
S1130BA0DF93FC012081222369F0DC011196E0EC43
S1130BB0F0E0C6ECD0E0908195FFFDCF28832D9125
S1130BC02111F9CFDF91CF9108951F920F920FB6A3
S1130BD00F9211240BB60F922F933F934F935F9371
S1130BE06F937F938F939F93AF93BF93EF93FF93F1
S1130BF08091C600E0915C0291E09E0F90935C02AC
S1130C00F0E0E556FD4F80838A3071F4E0915C0298
S1130C10F0E0E556FD4F10828BE492E0C0DF8BE9F3
S1130C2092E0BDDF10925C02FF91EF91BF91AF9112
S1130C309F918F917F916F915F914F913F912F91F0
S1130C400F900BBE0F900FBE0F901F90189597FB3F
S1130C50072E16F4009406D077FD08D02DD007FC9B
S1130C6005D03EF4909581959F4F089570956195B8
S1130C707F4F0895A1E21A2EAA1BBB1BFD010DC0D4
S1130C80AA1FBB1FEE1FFF1FA217B307E407F50738
S1130C9020F0A21BB30BE40BF50B661F771F881F14
S1130CA0991F1A9469F760957095809590959B01AA
S1130CB0AC01BD01CF010895AA1BBB1B51E107C0C4
S1130CC0AA1FBB1FA617B70710F0A61BB70B881FD8
S1130CD0991F5A95A9F780959095BC01CD01089567
S1130CE00F931F93CF93DF93CDB7DEB72E970FB635
S1130CF0F894DEBF0FBECDBF0E891F8986E08C83BA
S1130D001A8309838FEF9FE79E838D83AE01465E2E
S1130D105F4F688D798DCE01019610D0EF81F885F3
S1130D20E00FF11F10822E960FB6F894DEBF0FBEAF
S1130D30CDBFDF91CF911F910F9108952F923F92D4
S1130D404F925F926F927F928F929F92AF92BF92D7
S1130D50CF92DF92EF92FF920F931F93CF93DF9383
S1130D60CDB7DEB72B970FB6F894DEBF0FBECDBF5D
S1130D706C017B018A01FC0117821682838181FF49
S1130D80BFC1CE0101963C01F6019381F70193FDA9
S1130D90859193FF81917F01882309F4ADC1853248
S1130DA039F493FD859193FF81917F01853221F47C
S1130DB0B60190E0D6D1E8CF912C212C312CFFE163
S1130DC0F315D8F08B3279F038F4803279F083322D
S1130DD0A1F4232D20611DC08D3261F0803369F4AC
S1130DE0232D216016C0832D8260382EE32DE4600C
S1130DF03E2E2AC0F32DF8601DC037FC2DC020ED17
S1130E00280F2A3040F08E32B9F436FC75C1232DF8
S1130E102064322E19C036FE06C08AE0989E200D4A
S1130E201124922E11C0EAE02E9E200D1124222EB0
S1130E30F32DF0623F2E08C08C3621F4832D806898
S1130E40382E02C0883641F4F70193FD859193FF53
S1130E5081917F018111B3CF982F9F7D9554933059
S1130E6028F40C5F1F4F9FE399830DC0833631F044
S1130E70833771F0833509F055C020C0F8018081B3
S1130E8089830E5F1F4F88248394912C530112C0D1
S1130E902801F2E04F0E511CF801A080B18036FE0B
S1130EA003C0692D70E002C06FEF7FEFC5014ED122
S1130EB04C018201F32DFF773F2E15C0280122E05B
S1130EC0420E511CF801A080B18036FE03C0692D8A
S1130ED070E002C06FEF7FEFC5012DD14C01F32DFF
S1130EE0F0683F2E820133FC19C0822D90E08816F1
S1130EF09906A0F4B60180E290E033D12A94F5CFAC
S1130F00F50137FC859137FE81915F01B60190E0D0
S1130F1028D121102A9421E0821A91088114910485
S1130F2079F7E1C0843611F0893639F5F80137FED6
S1130F3007C060817181828193810C5F1F4F08C05B
S1130F4060817181072E000C880B990B0E5F1F4F77
S1130F50F32DFF763F2E97FF09C0909580957095ED
S1130F6061957F4F8F4F9F4FF0683F2E2AE030E00E
S1130F70A30133D1882E861844C0853731F4232D3C
S1130F802F7EB22E2AE030E025C0932D997FB92E12
S1130F908F36C1F018F4883579F0AEC0803719F077
S1130FA0883721F0A9C0E92FE061BE2EB4FE0DC040
S1130FB0FB2DF460BF2E09C034FE0AC0292F266021
S1130FC0B22E06C028E030E005C020E130E002C0C7
S1130FD020E132E0F801B7FE07C0608171818281AF
S1130FE093810C5F1F4F06C06081718180E090E0A7
S1130FF00E5F1F4FA301F1D0882E8618FB2DFF77BB
S11310003F2E36FE0DC0232D2E7FA22E891458F4B8
S113101034FE0BC032FC09C0832D8E7EA82E05C081
S1131020B82CA32C03C0B82C01C0B92CA4FE0FC04B
S1131030FE01E80DF11D8081803321F49A2D997E03
S1131040A92E09C0A2FE06C0B394B39404C08A2D8D
S1131050867809F0B394A3FC10C0A0FE06C0B214B5
S113106080F4280C922C9B180DC0B21458F4B601CD
S113107080E290E076D0B394F8CFB21418F42B1831
S113108002C0982C212CA4FE0FC0B60180E390E08E
S113109068D0A2FE16C0A1FC03C088E790E002C09D
S11310A088E590E0B6010CC08A2D867851F0A1FE47
S11310B002C08BE201C080E2A7FC8DE2B60190E0A1
S11310C050D0891430F4B60180E390E04AD09A9469
S11310D0F8CF8A94F301E80DF11D8081B60190E008
S11310E040D08110F6CF222009F44ECEB60180E222
S11310F090E037D02A94F7CFF6018681978102C019
S11311008FEF9FEF2B960FB6F894DEBF0FBECDBFC7
S1131110DF91CF911F910F91FF90EF90DF90CF90CF
S1131120BF90AF909F908F907F906F905F904F9003
S11311303F902F900895FC0105906150704001107C
S1131140D8F7809590958E0F9F1F0895FC016150EC
S1131150704001900110D8F7809590958E0F9F1FD5
S113116008950F931F93CF93DF93FB01238121FDF8
S113117003C08FEF9FEF2CC022FF16C0468157811A
S1131180248135814217530744F4A081B1819D0124
S11311902F5F3F4F318320838C93268137812F5FCC
S11311A03F4F3783268314C08B01EC01FB0100847D
S11311B0F185E02D1995892BE1F6D80116968D91CC
S11311C09C911797019617969C938E931697CE0130
S11311D0DF91CF911F910F910895FA01AA2728302A
S11311E051F1203181F1E8946F936E7F6E5F7F4FF0
S11311F08F4F9F4FAF4FB1E03ED0B4E03CD0670F6C
S1131200781F891F9A1FA11D680F791F8A1F911DBE
S1131210A11D6A0F711D811D911DA11D20D009F40E
S113122068943F912AE0269F11243019305D319350
S1131230DEF6CF010895462F4770405D4193B3E039
S11312400FD0C9F7F6CF462F4F70405D4A3318F0E0
S1131250495D31FD4052419302D0A9F7EACFB4E091
S1131260A6959795879577956795BA95C9F7009749
S11312706105710508959B01AC010A2E06945795EA
S1131280479537952795BA95C9F7620F731F841F41
S10D1290951FA01D0895F894FFCFE8
S113129A0A000A00DC002C010200FFFF000044419E
S11312AA54453A2020202532642D2532642D2534D4
S11312BA640054494D453A202020202532643A25B9
S11312CA32643A25326420005765656B6461793A61
S11312DA202564000A00252E3466005B52782065B6
S10B12EA63686F5D3A20000007
S9030000FC
