S01E00005354373739365F5446545F446576656C6F706D656E742E7372656353
S113000071C000008FC000008DC000008BC00000D4
S113001089C0000087C0000085C0000083C00000C4
S113002081C000007FC000007DC000007BC00000D4
S113003079C0000077C0000075C0000073C00000E4
S113004071C000006FC000006DC000006BC00000F4
S113005069C0000067C0000065C00000EEC0000079
S113006061C0000040C700005DC000005BC000002C
S113007059C0000057C0000055C0000053C0000024
S113008051C000004FC000004DC000004BC0000034
S113009049C0000047C0000045C0000043C0000044
S11300A041C000003FC000003DC000003BC0000054
S11300B039C0000037C0000035C0000033C0000064
S11300C031C000002FC000002DC000002BC0000074
S11300D029C0000027C0000025C0000023C0000084
S11300E021C0000011241FBECFEFD1E2DEBFCDBF7F
S11300F000E00CBF18E0A0E0B2E0EAE8F5E100E0BF
S11301000BBF02C007900D92A639B107D9F728E0BA
S1130110A6E9B8E001C01D92AF3FB207E1F7B9D438
S11301200C94C30A6DCF80E480937C00EAE7F0E08E
S113013087EA808310927B008081806480830895A5
S11301408093010290910002891709F44DC0823016
S1130150F1F028F4882349F0813081F03BC08430E9
S113016041F1F0F0853071F135C080E480937C007A
S1130170EEE7F0E08081816080832CC081E480938D
S11301807C00EEE7F0E080818260808323C082E41B
S113019080937C00EEE7F0E08081826080831AC067
S11301A083E480937C00EEE7F0E0808184608083C8
S11301B011C084E480937C00EEE7F0E080818860E5
S11301C0808308C085E480937C00EEE7F0E08081C2
S11301D0806180838FEA94E00197F1F700C000000A
S11301E0809101028093000220917800809179002F
S11301F090E0982F8827820F911D089514BC83E006
S113020085BD81E080936E0016BC0895F7CF0895F4
S1130210279A94B5906894BD94B5936094BD85363F
S113022018F08FEF87BD08952FEF829FC00111242E
S113023064E670E0A6D667BD08951F920F920FB6CC
S11302400F9211242F933F938F939F93AF93BF9358
S113025080919E0890919F08A091A008B091A10858
S113026030919D0823E0230F2D3720F40196A11D22
S1130270B11D05C026E8230F0296A11DB11D809370
S11302809E0890939F08A093A008B093A108209380
S11302909D088091990890919A08A0919B08B0912B
S11302A09C080196A11DB11D8093990890939A080A
S11302B0A0939B08B0939C08BF91AF919F918F919D
S11302C03F912F910F900FBE0F901F9018952BDF29
S11302D082988A9A089580E033CF089581E030CFE0
S11302E008958FB182FB882780F908952898759A1C
S11302F0E9D4289A089528987598E4D4289A0895FA
S113030074982FEF81EE94E0215080409040E1F703
S113031000C00000749A2FEF80E792E021508040E3
S11303209040E1F700C000000895AF92BF92CF92D1
S1130330DF92EF92FF920F931F93CF93DF93B82E28
S1130340A92EF62EE72ED42EC52E122F032FC2EA85
S1130350D8E08985D0DF8A2DC9DF8B2DC7DF8C2DAE
S1130360C5DF8D2DC3DF8B85C6DF8E2DBFDF8F2DBF
S1130370BDDF802FBBDF812FB9DF8F81BCDFDF9131
S1130380CF911F910F91FF90EF90DF90CF90BF908E
S1130390AF9008959B01AC01C8CF0895E2EAF8E05C
S11303A02AE230E0328721872BE230E0348723874A
S11303B02CE230E0308727838130A9F028F08230A6
S11303C009F1833071F10895E2EAF8E080E491E004
S11303D09183808380EE91E09383828386E38BDF35
S11303E088E484CF0895E2EAF8E080EE91E0918316
S11303F0808380E491E09383828386E37CDF88E2D8
S113040075CF0895E2EAF8E080E491E09183808377
S113041080EE91E09383828386E36DDF88E866CF84
S11304200895E2EAF8E080EE91E09183808380E42D
S113043091E09383828386E35EDF88EE57CF08954D
S1130440E7CE0895CF93C82F2898759A892F3AD468
S11304508C2F38D4289ACF910895CF92DF92EF92BF
S1130460FF920F931F93CF93DF937C01C2EAD8E0EE
S11304702A813B81215031094881598141505109D8
S113048060E070E080E090E050DF2898759A8A81FF
S11304909B81892BB1F41FC0C0E0D0E0C701D2DF3B
S11304A02196F80180819181C817D907B8F3FFEF2D
S11304B0CF1ADF0AF80182819381C816D90628F081
S11304C00AC0C12CD12C02EA18E0F8018081918184
S11304D0892B11F7ECCF289ADF91CF911F910F91BF
S11304E0FF90EF90DF90CF900895C4D38DB18063D7
S11304F08DB98CDE05DF80EFFEDE83ECF7DE80EF66
S1130500FADE86E9F3DE86E3F6DE88E6EFDE8AE3EA
S1130510F2DE85E0EBDE80EBEEDE80E8E7DE86EB04
S1130520EADE80E0E3DE82E0E1DE85EBE4DE82E029
S1130530DDDE83E0DBDE80E0D9DE84E0D7DE81EB44
S1130540DADE80E8D3DE80E1D1DE84EBD4DE80E045
S1130550CDDE87EBD0DE86ECC9DE85ECCCDE84E232
S1130560C5DE84EEC8DE81E3C1DE88EEC4DE80E44D
S1130570BDDE8AE8BBDE80E0B9DE80E0B7DE89E27A
S1130580B5DE89E1B3DE85EAB1DE83E3AFDE82EC7A
S1130590B2DE87EAB0DE80EEAEDE80EFA7DE89E071
S11305A0A5DE83E1A3DE82E1A1DE82E19FDE8BE2B0
S11305B09DDE8CE39BDE84E499DE8BE497DE8BE1A5
S11305C095DE88E193DE87E191DE8DE18FDE81E2C5
S11305D08DDE81EE90DE80EF89DE89E087DE83E1C7
S11305E085DE8CE083DE8DE081DE87E27FDE8BE3D7
S11305F07DDE84E47BDE8DE479DE8BE077DE87E1EB
S113060075DE87E173DE8DE171DE81E26FDE86E304
S113061072DE8CEE6BDE80EF6EDE83EC67DE80EFE5
S11306206ADE89E663DE83E166DE81E164DE89E217
S113063062DE80E0B3DE84E6EBDD80E090E00DCFA7
S11306400895CF93DF93EA01A5DECE01FBDEDF91AF
S1130650CF910895AF92BF92CF92DF92EF92FF9223
S11306600F931F93CF93DF934817590728F4F82F5C
S1130670E92FCA014F2F5E2F2617370728F4F62FCC
S1130680E72FB9012F2F3E2F7A01EFEFEE1AFE0A62
S1130690E81AF90A5901EFEFAE1ABE0AA61AB70A08
S11306A044DEA114B10481F415C0C0E0D0E0C80157
S11306B0C9DE2196EC16FD06D1F78FEFC81AD80AC9
S11306C0AC14BD0419F406C0C12CD12CE114F104FE
S11306D061F7F3CFDF91CF911F910F91FF90EF90CE
S11306E0DF90CF90BF90AF9008952F923F924F929A
S11306F05F926F927F928F929F92AF92BF92CF92AE
S1130700DF92EF92FF920F931F93CF93DF93CDB7B6
S1130710DEB728970FB6F894DEBF0FBECDBF1A839D
S113072009836A01C81AD90A3901661A770A1C01B1
S11307302B011C141D045CF0C114D10469F0D19484
S1130740C194D1088FEF9FEF9C838B8307C081E016
S113075090E09C838B8302C01C821B8216141704B6
S11307605CF06114710469F07194619471088FEF05
S11307709FEF9E838D8307C081E090E09E838D83ED
S113078002C01E821D827601C614D7040CF47301C4
S113079057019FEFA91AB90A00E010E018861F82DA
S11307A0812C912C49815A81B201C1014ADF8F8188
S11307B098858C0D9D1D98878F83060D171DE8164F
S11307C0F90644F48E199F0998878F838B819C8145
S11307D0280E391EE016F10634F40E191F098D8116
S11307E09E81480E591E9FEF891A990AA814B904CC
S11307F0C8F628960FB6F894DEBF0FBECDBFDF91C2
S1130800CF911F910F91FF90EF90DF90CF90BF9009
S1130810AF909F908F907F906F905F904F903F909C
S11308202F9008958F929F92AF92BF92CF92DF92B2
S1130830EF92FF920F931F93CF93DF934C017B01B1
S1130840EA0169019B0151DF9601A401B701C401CA
S11308504CDF9601AE01B601C40147DF9601AE013B
S1130860B701CE0142DFDF91CF911F910F91FF902D
S1130870EF90DF90CF90BF90AF909F908F900895AE
S11308800F931F93E7DE1F910F9108953F924F92AC
S11308905F926F927F928F929F92AF92BF92CF920C
S11308A0DF92EF92FF920F931F93CF93DF936A012E
S11308B0590100526E2C712C2301440C551C440C1C
S11308C0551C440C551C440C551C660C771C660CBA
S11308D0771C660C771C9B0121503109240D351DB2
S11308E0AC0141505109460D571D1FDD1414150468
S11308F0BCF520E1029FC0011124312C9C012D572D
S11309003D4F490107E010E0832D6E2D2ED3F401F5
S1130910E80FF11DC58116141704E4F4F12CD0E09E
S11309208F2D6E2D22D39801281B3109C9019E01F8
S113093002C0359527958A95E2F720FF03C0C601CA
S113094081DD02C0C5017EDDF3948F2D90E0861514
S1130950970534F33394832D90E084159505A4F220
S1130960DF91CF911F910F91FF90EF90DF90CF9087
S1130970BF90AF909F908F907F906F905F904F90BB
S11309803F9008952F923F924F925F926F927F9281
S11309908F929F92AF92BF92CF92DF92EF92FF928B
S11309A00F931F93CF93DF9300D01F92CDB7DEB781
S11309B09C838B834B01D42E1A83098317011C2D2E
S11309C0F901008180EE800F8F3508F04BC08091D3
S11309D0A2089091A30801974B815C818417950725
S11309E008F440C08091A4089091A5080197861747
S11309F09707C0F14D2C512C440C551C440C551C2C
S1130A00440C551C59015FEFA51AB50A0F2EF2EAE2
S1130A106F2EF8E07F2EF02D0FC0F30180819181BD
S1130A2001972B813C8182179307E0F082819381A7
S1130A30019788159905B0F0C12EED2C91014981DB
S1130A405A81B4018B819C8121DF4B815C81440DEF
S1130A50551D5C834B83F50101915F0180EE800F8E
S1130A608F35D8F20F900F900F900F90DF91CF91A8
S1130A701F910F91FF90EF90DF90CF90BF90AF90B8
S1130A809F908F907F906F905F904F903F902F90AA
S1130A900895CF93DF93CDB7DEB763970FB6F8947D
S1130AA0DEBF0FBECDBF21DD84E1CADC81E076DC90
S1130AB00EDC0ED1C12CD12CE12CF12C00E018EF6E
S1130AC028E738E042E050E064E170E080E491E03F
S1130AD059DF0F2EFFE7AF2EF8E0BF2EF02D2E01C9
S1130AE02DE0420E511C1E0187E0280E311CF3DB61
S1130AF03C01F4DB4C01F5DB8B8B7F926F92BF9250
S1130B00AF925F924F9264D29F928F92BF92AF92B4
S1130B103F922F925DD21F929B899F93BF92AF9277
S1130B2081E090E08C0F9D1F9F938F9351D2C12C35
S1130B30D12CE12CF12C0FEF1FEF920141E050E09A
S1130B4064E670E080E491E01DDF910141E050E053
S1130B5068E770E080E491E015DF9E012F5F3F4F6E
S1130B6041E050E06CE870E080E491E00BDF60EE7F
S1130B7077E084E02AD19FEF20E782E09150204083
S1130B808040E1F700C000000FB6F894DEBF0FBE4E
S1130B90CDBF94E16916710430F460E070E084E044
S1130BA014D1F0D00AC029EE621623E0720628F0B0
S1130BB060E070E084E009D1EBD084E18816910410
S1130BC030F460E070E084E000D1E8D00AC099EE2F
S1130BD0891693E0990628F060E070E084E0F5D08F
S1130BE0E3D02B89211183CFE5D081CF43704130ED
S1130BF059F028F0423071F0433091F016C0660F7E
S1130C00660F962F980F11C0645F880F880F962F78
S1130C10981B0BC09FE0981B660F660F961B05C0C0
S1130C20880F880F8D5F982F961B892F0895833026
S1130C3091F028F4813049F0823051F018C08530A9
S1130C4081F060F0863081F012C082E592E0089570
S1130C5082E492E0089582E392E0089582E292E0D1
S1130C60089582E192E0089582E092E0089582E698
S1130C7092E008958091960890919708892B09F540
S1130C8084B1876084B98CB580618CBD8CB58F7D4F
S1130C908CBD8CB5877F8CBD8CB58B7F8CBD8CB5A2
S1130CA08D7F8CBD8CB58E7F8CBD8DB581608DBDE7
S1130CB08CB580648CBD81E090E09093970880931C
S1130CC0960808958EBD0DB407FEFDCF8EB5089528
S1130CD00F931F93CF93DF93C5E7D2E00A851B855B
S1130CE02E813F814C815D816A817B8188819981DC
S1130CF099DDE885F9850A851B852E813F812E0FB4
S1130D003F1F4C815D814E0F5F1F6A817B816E1B8B
S1130D107F0B888199818E1B9F0B84DDDF91CF919E
S1130D201F910F910895CF93DF93CDB7DEB7289726
S1130D300FB6F894DEBF0FBECDBF9FE0969FB00103
S1130D401124989FC00111249B01245F3F4F3A83D3
S1130D502983AC01465F5F4F5C834B83675E7F4FA3
S1130D607E836D83479698878F833A815C817E81E9
S1130D70988528960FB6F894DEBF0FBECDBFDF91DD
S1130D80CF910895E2E7F2E0808181508083089555
S1130D90E2E7F2E080818F5F80830895E2E7F2E08A
S1130DA081818F5F81830895E2E7F2E08181815040
S1130DB081830895809174028F5F843018F4809346
S1130DC0740208951092740208952F923F924F92E4
S1130DD05F926F927F928F929F92AF92BF92CF92C7
S1130DE0DF92EF92FF920F931F93CF93DF93CDB7D0
S1130DF0DEB728970FB6F894DEBF0FBECDBF662EC0
S1130E00772EE2E7F2E03080B18011DF4C01E12C73
S1130E100F2EF2E7CF2EF2E0DF2EF02D412C512CD5
S1130E202FC02B2C2F0CF60142816E2D8F2DDEDE70
S1130E30F401E80FF11D8081882319F0062D172D88
S1130E4002C0042D152D622D8A2D6DDF29833A836E
S1130E504B835C836D837E838F8398872F81388552
S1130E604D815E816B817C8189819A8109DDF39456
S1130E70F4E0FF12D6CFE394EF1631F0F601B1801F
S1130E80A32CAE0CF12CCDCF28960FB6F894DEBF70
S1130E900FBECDBFDF91CF911F910F91FF90EF90C7
S1130EA0DF90CF90BF90AF909F908F907F906F9086
S1130EB05F904F903F902F900895CF93DF93FC0164
S1130EC02081222369F0DC011196E0ECF0E0C6EC0D
S1130ED0D0E0908195FFFDCF28832D912111F9CF8A
S1130EE0DF91CF9108951F920F920FB60F921124A4
S1130EF00BB60F922F933F934F935F936F937F9310
S1130F008F939F93AF93BF93EF93FF938091C6000A
S1130F10E091980891E09E0F90939808F0E0E952D0
S1130F20F74F80838A3071F4E0919808F0E0E95239
S1130F30F74F10828AE898E0C0DF87ED98E0BDDFC4
S1130F4010929808FF91EF91BF91AF919F918F916B
S1130F507F916F915F914F913F912F910F900BBEB5
S1130F600F900FBE0F901F901895991B79E004C045
S1130F70991F961708F0961B881F7A95C9F78095D4
S1130F80089597FB072E16F4009406D077FD08D039
S1130F900BD007FC05D03EF4909581959F4F0895A2
S1130FA0709561957F4F0895AA1BBB1B51E107C043
S1130FB0AA1FBB1FA617B70710F0A61BB70B881FE5
S1130FC0991F5A95A9F780959095BC01CD01089574
S1130FD00F931F93CF93DF93CDB7DEB72E970FB642
S1130FE0F894DEBF0FBECDBF0E891F8986E08C83C7
S1130FF01A8309838FEF9FE79E838D83AE01465E3C
S11310005F4F688D798DCE01019610D0EF81F88500
S1131010E00FF11F10822E960FB6F894DEBF0FBEBC
S1131020CDBFDF91CF911F910F9108952F923F92E1
S11310304F925F926F927F928F929F92AF92BF92E4
S1131040CF92DF92EF92FF920F931F93CF93DF9390
S1131050CDB7DEB72B970FB6F894DEBF0FBECDBF6A
S11310606C017B018A01FC0117821682838181FF56
S1131070BFC1CE0101963C01F6019381F70193FDB6
S1131080859193FF81917F01882309F4ADC1853255
S113109039F493FD859193FF81917F01853221F489
S11310A0B60190E0D6D1E8CF912C212C312CFFE170
S11310B0F315D8F08B3279F038F4803279F083323A
S11310C0A1F4232D20611DC08D3261F0803369F4B9
S11310D0232D216016C0832D8260382EE32DE46019
S11310E03E2E2AC0F32DF8601DC037FC2DC020ED24
S11310F0280F2A3040F08E32B9F436FC75C1232D06
S11311002064322E19C036FE06C08AE0989E200D57
S11311101124922E11C0EAE02E9E200D1124222EBD
S1131120F32DF0623F2E08C08C3621F4832D8068A5
S1131130382E02C0883641F4F70193FD859193FF60
S113114081917F018111B3CF982F9F7D9554933066
S113115028F40C5F1F4F9FE399830DC0833631F051
S1131160833771F0833509F055C020C0F8018081C0
S113117089830E5F1F4F88248394912C530112C0DE
S11311802801F2E04F0E511CF801A080B18036FE18
S113119003C0692D70E002C06FEF7FEFC5014ED12F
S11311A04C018201F32DFF773F2E15C0280122E068
S11311B0420E511CF801A080B18036FE03C0692D97
S11311C070E002C06FEF7FEFC5012DD14C01F32D0C
S11311D0F0683F2E820133FC19C0822D90E08816FE
S11311E09906A0F4B60180E290E033D12A94F5CFB9
S11311F0F50137FC859137FE81915F01B60190E0DE
S113120028D121102A9421E0821A91088114910492
S113121079F7E1C0843611F0893639F5F80137FEE3
S113122007C060817181828193810C5F1F4F08C068
S113123060817181072E000C880B990B0E5F1F4F84
S1131240F32DFF763F2E97FF09C0909580957095FA
S113125061957F4F8F4F9F4FF0683F2E2AE030E01B
S1131260A30133D1882E861844C0853731F4232D49
S11312702F7EB22E2AE030E025C0932D997FB92E1F
S11312808F36C1F018F4883579F0AEC0803719F084
S1131290883721F0A9C0E92FE061BE2EB4FE0DC04D
S11312A0FB2DF460BF2E09C034FE0AC0292F26602E
S11312B0B22E06C028E030E005C020E130E002C0D4
S11312C020E132E0F801B7FE07C0608171818281BC
S11312D093810C5F1F4F06C06081718180E090E0B4
S11312E00E5F1F4FA301F1D0882E8618FB2DFF77C8
S11312F03F2E36FE0DC0232D2E7FA22E891458F4C6
S113130034FE0BC032FC09C0832D8E7EA82E05C08E
S1131310B82CA32C03C0B82C01C0B92CA4FE0FC058
S1131320FE01E80DF11D8081803321F49A2D997E10
S1131330A92E09C0A2FE06C0B394B39404C08A2D9A
S1131340867809F0B394A3FC10C0A0FE06C0B214C2
S113135080F4280C922C9B180DC0B21458F4B601DA
S113136080E290E076D0B394F8CFB21418F42B183E
S113137002C0982C212CA4FE0FC0B60180E390E09B
S113138068D0A2FE16C0A1FC03C088E790E002C0AA
S113139088E590E0B6010CC08A2D867851F0A1FE54
S11313A002C08BE201C080E2A7FC8DE2B60190E0AE
S11313B050D0891430F4B60180E390E04AD09A9476
S11313C0F8CF8A94F301E80DF11D8081B60190E015
S11313D040D08110F6CF222009F44ECEB60180E22F
S11313E090E037D02A94F7CFF6018681978102C026
S11313F08FEF9FEF2B960FB6F894DEBF0FBECDBFD5
S1131400DF91CF911F910F91FF90EF90DF90CF90DC
S1131410BF90AF909F908F907F906F905F904F9010
S11314203F902F900895FC01059061507040011089
S1131430D8F7809590958E0F9F1F0895FC016150F9
S1131440704001900110D8F7809590958E0F9F1FE2
S113145008950F931F93CF93DF93FB01238121FD05
S113146003C08FEF9FEF2CC022FF16C04681578127
S1131470248135814217530744F4A081B1819D0131
S11314802F5F3F4F318320838C93268137812F5FD9
S11314903F4F3783268314C08B01EC01FB0100848A
S11314A0F185E02D1995892BE1F6D80116968D91D9
S11314B09C911797019617969C938E931697CE013D
S11314C0DF91CF911F910F910895FA01AA27283037
S11314D051F1203181F1E8946F936E7F6E5F7F4FFD
S11314E08F4F9F4FAF4FB1E03ED0B4E03CD0670F79
S11314F0781F891F9A1FA11D680F791F8A1F911DCC
S1131500A11D6A0F711D811D911DA11D20D009F41B
S113151068943F912AE0269F11243019305D31935D
S1131520DEF6CF010895462F4770405D4193B3E046
S11315300FD0C9F7F6CF462F4F70405D4A3318F0ED
S1131540495D31FD4052419302D0A9F7EACFB4E09E
S1131550A6959795879577956795BA95C9F7009756
S11315606105710508959B01AC010A2E06945795F7
S1131570479537952795BA95C9F7620F731F841F4E
S10D1580951FA01D0895F894FFCFF5
S113158AFFFF00000100000101000000010000004B
S113159A0000000100000001000000010100000039
S11315AA0000000001000000010000010100000029
S11315BA0000000000000001010000010100000019
S11315CA0000000100000001010000000100000009
S11315DA00000000010000010100000100000000F9
S11315EA00000000010000000100000001000000EA
S11315FA01000005000A000800DE0036010200FFAF
S113160AFF0000000810205F000000000000000036
S113161A000000000000000000000000101010107C
S113162A1010001000000000000000002828280004
S113163A00000000000000000000000028287C28A8
S113164A507C5050000000000000001038545038FC
S113165A14145438100000000000000044A8A850D4
S113166A141A2A24000000000000000000000000F0
S113167A000000000000000000000000101010002C
S113168A00000000000000000000000010202020DC
S113169A202020202010000000000000201010103C
S11316AA101010101020000000000000103810283C
S11316BA00000000000000000000000000001010FC
S11316CA7C10100000000000000000000000000070
S11316DA00000010102000000000000000000000BC
S11316EA00300000000000000000000000000000BC
S11316FA00000010000000000000000008080810A4
S113170A1020202000000000000000003048484853
S113171A4848483000000000000000001030501013
S113172A10101010000000000000000030480808E3
S113173A1020407800000000000000003048083003
S113174A0808483000000000000000000818282893
S113175A487C08080000000000000000382040709F
S113176A08084830000000000000000030484050DB
S113177A6848483000000000000000007808101093
S113178A10202020000000000000000030484830EB
S113179A484848300000000000000000304848581B
S11317AA2808483000000000000000000000100073
S11317BA00000010000000000000000000001000FB
S11317CA0000001010200000000000000000083093
S11317DA403008000000000000000000000000780B
S11317EA0078000000000000000000000000403003
S11317FA08304000000000000000000030480810D3
S113180A2020002000000000000000003844B64AEE
S113181A4A4A4A3C8244380000000000102828281A
S113182A283844440000000000000000784444784A
S113183A44444478000000000000000038448480D6
S113184A80844438000000000000000070484444CA
S113185A4444487000000000000000007C40407CC2
S113186A4040407C00000000000000003C2020387A
S113187A202020200000000000000000384484805A
S113188A9C84443800000000000000004444447C66
S113189A44444444000000000000000010101010EA
S11318AA10101010000000000000000008080808CA
S11318BA0848483000000000000000004448507006
S11318CA50484844000000000000000040404040E6
S11318DA40404078000000000000000082C6C6AA0A
S11318EAAAAAAA92000000000000000084C4A4A4CA
S11318FA94948C8400000000000000003048848422
S113190A8484483000000000000000007844444405
S113191A7840404000000000000000003048848401
S113192A8484583404000000000000007844447899
S113193A5048444200000000000000003844403887
S113194A0444443800000000000000007C10101019
S113195A1010101000000000000000008484848429
S113196A8484483000000000000000004444282811
S113197A28282810000000000000000092AAAAAA41
S113198AAAAAAA4400000000000000004224241865
S113199A18242442000000000000000044282810F3
S11319AA1010101000000000000000007C04081051
S11319BA1020407C0000000000000000302020209D
S11319CA20202020203000000000000020201010D9
S11319DA1010080800000000000000003010101069
S11319EA10101010103000000000000010282828E1
S11319FA00000000000000000000000000000000D9
S1131A0A000000007C00000000000000201000001C
S1131A1A0000000000000000000000000000700840
S1131A2A3848483800000000000000004040506870
S1131A3A48486850000000000000000000003048D8
S1131A4A4040483000000000000000000808285800
S1131A5A48485828000000000000000000003048F0
S1131A6A78404830000000000000000018103810C8
S1131A7A1010101000000000000000000000285898
S1131A8A4848582808700000000000004040506888
S1131A9A48484848000000000000000010001010E8
S1131AAA10101010000000000000000010001010B8
S1131ABA1010101010300000000000004040485080
S1131ACA6050484800000000000000001010101088
S1131ADA1010101000000000000000000000A6DA38
S1131AEA92929292000000000000000000005068E8
S1131AFA4848484800000000000000000000304840
S1131B0A4848483000000000000000000000506807
S1131B1A484868504040000000000000000028586F
S1131B2A484858280808000000000000000028302F
S1131B3A202020200000000000000000000070485F
S1131B4A2010483000000000000000001010381077
S1131B5A101010180000000000000000000048489F
S1131B6A48485828000000000000000000004444CF
S1131B7A282828100000000000000000000092AA93
S1131B8AAAAAAA4400000000000000000000442899
S1131B9A101028440000000000000000000044283F
S1131BAA2828101010200000000000000000780807
S1131BBA102040780000000000000000302020209F
S1131BCA40202020201000000000000010101010F7
S1131BDA1010101010100000000000003010101037
S1131BEA08101010103000000000000000000074FB
S1131BFA580000000000000054455452495300257F
S1131C0A3464000A00252E3466005B52782065632A
S1091C1A686F5D3A200032
S9030000FC
