:1000000071C000008FC000008DC000008BC00000D8
:1000100089C0000087C0000085C0000083C00000C8
:1000200081C000007FC000007DC000007BC00000D8
:1000300079C0000077C0000075C0000073C00000E8
:1000400071C000006FC000006DC000006BC00000F8
:1000500069C0000067C0000065C0000084C00000E7
:1000600061C000008FC500005DC000005BC00000E3
:1000700059C0000057C0000055C0000053C0000028
:1000800051C000004FC000004DC000004BC0000038
:1000900049C0000047C0000045C0000043C0000048
:1000A00041C000003FC000003DC000003BC0000058
:1000B00039C0000037C0000035C0000033C0000068
:1000C00031C000002FC000002DC000002BC0000078
:1000D00029C0000027C0000025C0000023C0000088
:1000E00021C0000011241FBECFEFD1E2DEBFCDBF83
:1000F00000E00CBF18E0A0E0B2E0EAECFDE100E0B7
:100100000BBF02C007900D92AC3AB107D9F72BE0B4
:10011000ACEAB8E001C01D92A834B207E1F774D58B
:100120000C94E30E6DCF14BC83E085BD81E0809319
:100130006E0016BC0895F7CF0895279A94B590687D
:1001400094BD94B5936094BD853618F08FEF87BD4C
:1001500008952FEF829FC001112464E670E00E9491
:100160002F0B67BD08951F920F920FB60F921124A7
:100170002F933F938F939F93AF93BF938091E70A01
:100180009091E80AA091E90AB091EA0A3091E60A52
:1001900023E0230F2D3720F40196A11DB11D05C0CA
:1001A00026E8230F0296A11DB11D8093E70A9093C4
:1001B000E80AA093E90AB093EA0A2093E60A80913C
:1001C000E20A9091E30AA091E40AB091E50A01964F
:1001D000A11DB11D8093E20A9093E30AA093E40A63
:1001E000B093E50ABF91AF919F918F913F912F916D
:1001F0000F900FBE0F901F90189580B3807E80BB2C
:1002000081B38F6181BB81E08093AC080895823017
:1002100091F028F4882341F0813049F01AC08330EE
:1002200079F0843091F015C08FB1817008958FB14D
:100230008695817008958FB182FB882780F9089593
:100240008FB183FB882780F908958FB182958170E3
:10025000089582E008957F928F929F92AF92BF920D
:10026000CF92DF92EF92FF920F931F93CF93DF9382
:1002700000D01F921F92CDB7DEB7DD24D394CC24DB
:10028000C39447C08F2DC3DF811101C0E394015097
:100290001109C1F784E08E1560F41092AC088F2D1F
:1002A00090E0FC01EC5FFD4F208121110CC08C2DF2
:1002B00010C0C092AC08EF2DF0E0EC5FFD4FC082A3
:1002C0002C2D8C2D06C0FC01EC5FFD4F108220E030
:1002D00080E092E0F91699F09F1530F0FF2059F078
:1002E00091E0F91651F011C093E0F91651F094E045
:1002F000F91649F00AC0782E0BC0882E09C0922E3C
:1003000007C0A82E05C0B82E0BC084E08D1540F0A4
:10031000D394FF24FA94FD0C05E010E0E12CB2CF59
:10032000272D382D492D5A2D6B2D70E080E090E05F
:100330000F900F900F900F900F90DF91CF911F9122
:100340000F91FF90EF90DF90CF90BF90AF909F9074
:100350008F907F9008952898759AF8D3289A0895D9
:1003600028987598F3D3289A089574982FEF81EE02
:1003700094E0215080409040E1F700C00000749A62
:100380002FEF80E792E0215080409040E1F700C0DD
:1003900000000895AF92BF92CF92DF92EF92FF924A
:1003A0000F931F93CF93DF93B82EA92EF62EE72E2F
:1003B000D42EC52E122F032FCBEEDAE08985D0DFA5
:1003C0008A2DC9DF8B2DC7DF8C2DC5DF8D2DC3DFB7
:1003D0008B85C6DF8E2DBFDF8F2DBDDF802FBBDF6E
:1003E000812FB9DF8F81BCDFDF91CF911F910F91FA
:1003F000FF90EF90DF90CF90BF90AF9008959B015A
:10040000AC01C8CF0895EBEEFAE02AE230E0328783
:1004100021872BE230E0348723872CE230E03087DD
:1004200027838130A9F028F0823009F1833071F1FF
:100430000895EBEEFAE080E491E09183808380EE12
:1004400091E09383828386E38BDF88E484CF0895F1
:10045000EBEEFAE080EE91E09183808380E491E01E
:100460009383828386E37CDF88E275CF0895EBEE89
:10047000FAE080E491E09183808380EE91E09383C1
:10048000828386E36DDF88E866CF0895EBEEFAE0BD
:1004900080EE91E09183808380E491E09383828376
:1004A00086E35EDF88EE57CF089547CE0895CF9359
:1004B000C82F2898759A892F49D38C2F47D3289A0B
:1004C000CF910895CF92DF92EF92FF920F931F93F7
:1004D000CF93DF937C01CBEEDAE02A813B81215080
:1004E0003109488159814150510960E070E080E054
:1004F00090E050DF2898759A8A819B81892BB1F40E
:100500001FC0C0E0D0E0C701D2DF2196F801808192
:100510009181C817D907B8F3FFEFCF1ADF0AF801A6
:1005200082819381C816D90628F00AC0C12CD12C2B
:100530000BEE1AE0F80180819181892B11F7ECCF45
:10054000289ADF91CF911F910F91FF90EF90DF904C
:10055000CF900895D3D28DB180638DB9ECDD05DFE6
:1005600080EFFEDE83ECF7DE80EFFADE86E9F3DE75
:1005700086E3F6DE88E6EFDE8AE3F2DE85E0EBDE98
:1005800080EBEEDE80E8E7DE86EBEADE80E0E3DEAD
:1005900082E0E1DE85EBE4DE82E0DDDE83E0DBDECF
:1005A00080E0D9DE84E0D7DE81EBDADE80E8D3DEDE
:1005B00080E1D1DE84EBD4DE80E0CDDE87EBD0DEDF
:1005C00086ECC9DE85ECCCDE84E2C5DE84EEC8DED6
:1005D00081E3C1DE88EEC4DE80E4BDDE8AE8BBDEF6
:1005E00080E0B9DE80E0B7DE89E2B5DE89E1B3DE26
:1005F00085EAB1DE83E3AFDE82ECB2DE87EAB0DE0D
:1006000080EEAEDE80EFA7DE89E0A5DE83E1A3DE2B
:1006100082E1A1DE82E19FDE8BE29DDE8CE39BDE48
:1006200084E499DE8BE497DE8BE195DE88E193DE4E
:1006300087E191DE8DE18FDE81E28DDE81EE90DE5D
:1006400080EF89DE89E087DE83E185DE8CE083DE72
:100650008DE081DE87E27FDE8BE37DDE84E47BDE7E
:100660008DE479DE8BE077DE87E175DE87E173DE8E
:100670008DE171DE81E26FDE86E372DE8CEE6BDE91
:1006800080EF6EDE83EC67DE80EF6ADE89E663DE94
:1006900083E166DE81E164DE89E262DE80E0B3DE72
:1006A00084E64BDD80E090E00DCF0895CF93DF939B
:1006B000EA01A5DECE01FBDEDF91CF910895AF9276
:1006C000BF92CF92DF92EF92FF920F931F93CF933F
:1006D000DF934817590728F4F82FE92FCA014F2F45
:1006E0005E2F2617370728F4F62FE72FB9012F2F93
:1006F0003E2F7A01EFEFEE1AFE0AE81AF90A5901C5
:10070000EFEFAE1ABE0AA61AB70A44DEA114B1046E
:1007100081F415C0C0E0D0E0C801C9DE2196EC1616
:10072000FD06D1F78FEFC81AD80AAC14BD0419F42E
:1007300006C0C12CD12CE114F10461F7F3CFDF9195
:10074000CF911F910F91FF90EF90DF90CF90BF90CE
:10075000AF9008952F923F924F925F926F927F9247
:100760008F929F92AF92BF92CF92DF92EF92FF92C1
:100770000F931F93CF93DF93CDB7DEB728970FB6B4
:10078000F894DEBF0FBECDBF1A8309836A01C81A71
:10079000D90A3901661A770A1C012B011C141D04A1
:1007A0005CF0C114D10469F0D194C194D1088FEFE9
:1007B0009FEF9C838B8307C081E090E09C838B83B9
:1007C00002C01C821B82161417045CF061147104B1
:1007D00069F07194619471088FEF9FEF9E838D8310
:1007E00007C081E090E09E838D8302C01E821D823F
:1007F0007601C614D7040CF4730157019FEFA91AB0
:10080000B90A00E010E018861F82812C912C4981E2
:100810005A81B201C1014ADF8F8198858C0D9D1DDF
:1008200098878F83060D171DE816F90644F48E1974
:100830009F0998878F838B819C81280E391EE01633
:10084000F10634F40E191F098D819E81480E591E40
:100850009FEF891A990AA814B904C8F628960FB60A
:10086000F894DEBF0FBECDBFDF91CF911F910F91E6
:10087000FF90EF90DF90CF90BF90AF909F908F90C0
:100880007F906F905F904F903F902F9008958F9240
:100890009F92AF92BF92CF92DF92EF92FF920F930F
:1008A0001F93CF93DF934C017B01EA0169019B0108
:1008B00051DF9601A401B701C4014CDF9601AE01DE
:1008C000B601C40147DF9601AE01B701CE0142DF98
:1008D000DF91CF911F910F91FF90EF90DF90CF901C
:1008E000BF90AF909F908F9008950F931F93E7DE76
:1008F0001F910F9108953F924F925F926F927F9256
:100900008F929F92AF92BF92CF92DF92EF92FF921F
:100910000F931F93CF93DF936A01590100526E2CFE
:10092000712C2301440C551C440C551C440C551CC3
:10093000440C551C660C771C660C771C660C771CE7
:100940009B0121503109240D351DAC014150510945
:10095000460D571D1FDD14141504BCF520E1029F40
:10096000C0011124312C9C01225F3D4F490107E059
:1009700010E0832D6E2D67D6F401E80FF11DC581BF
:1009800016141704E4F4F12CD0E08F2D6E2D5BD6F5
:100990009801281B3109C9019E0102C03595279590
:1009A0008A95E2F720FF03C0C60181DD02C0C501C0
:1009B0007EDDF3948F2D90E08615970534F3339404
:1009C000832D90E084159505A4F2DF91CF911F91BE
:1009D0000F91FF90EF90DF90CF90BF90AF909F90DE
:1009E0008F907F906F905F904F903F9008952F92DF
:1009F0003F924F925F926F927F928F929F92AF92AF
:100A0000BF92CF92DF92EF92FF920F931F93CF93FB
:100A1000DF9300D01F92CDB7DEB79C838B834B0151
:100A2000D42E1A83098317011C2DF901008180EE51
:100A3000800F8F3508F04BC08091EB0A9091EC0A43
:100A400001974B815C818417950708F440C0809121
:100A5000ED0A9091EE0A019786179707C0F14D2C89
:100A6000512C440C551C440C551C440C551C59016C
:100A70005FEFA51AB50A0F2EFBEE6F2EFAE07F2E60
:100A8000F02D0FC0F3018081918101972B813C8172
:100A900082179307E0F08281938101978815990569
:100AA000B0F0C12EED2C910149815A81B4018B81A6
:100AB0009C8121DF4B815C81440D551D5C834B8300
:100AC000F50101915F0180EE800F8F35D8F20F9014
:100AD0000F900F900F90DF91CF911F910F91FF908A
:100AE000EF90DF90CF90BF90AF909F908F907F90CE
:100AF0006F905F904F903F902F9008958091AD0838
:100B00009091AE08892B09F584B1876084B98CB5C2
:100B100080618CBD8CB58F7D8CBD8CB5877F8CBD85
:100B20008CB58B7F8CBD8CB58D7F8CBD8CB58E7F4D
:100B30008CBD8DB581608DBD8CB580648CBD81E030
:100B400090E09093AE088093AD0808958EBD0DB4EB
:100B500007FEFDCF8EB50895CF93DF93FC01208172
:100B6000222369F0DC011196E0ECF0E0C6ECD0E065
:100B7000908195FFFDCF28832D912111F9CFDF9131
:100B8000CF9108951F920F920FB60F9211240BB6BA
:100B90000F922F933F934F935F936F937F938F9316
:100BA0009F93AF93BF93EF93FF938091C600E09123
:100BB000AF0891E09E0F9093AF08F0E0E05EF44F35
:100BC00080838A3071F4E091AF08F0E0E05EF44F8A
:100BD00010828AE098E0C0DF80E29BE0BDDF1092E7
:100BE000AF08FF91EF91BF91AF919F918F917F914E
:100BF0006F915F914F913F912F910F900BBE0F908E
:100C00000FBE0F901F901895CF93DF93CDB7DEB72F
:100C10006D970FB6F894DEBF0FBECDBF9BDC84E1AD
:100C200044DC81E0F0DBE9DA10D1C12CD12CE12CDD
:100C3000F12C00EE1FEF26E138E042E050E064E1E5
:100C400070E080E491E0D3DE0F2EF1E2AF2EF8E009
:100C5000BF2EF02D3E0125E1620E711CCE014396A0
:100C6000988F8F8B02979A8F898F02979C8F8B8F8B
:100C70001E019DE0290E311CEEDA922EE32EF42E99
:100C8000052F162F288739874A875B876C87532E55
:100C90004D8F452E862E5BD49F938F938DE198E0E8
:100CA0009F938F9381E090E08C0F9D1F9F938F9374
:100CB00074D51F929F92BF92AF927F926F926DD523
:100CC0001F92EF92BF92AF92988D9F932F892F938F
:100CD00064D51F92FF92BF92AF928A8D8F93998DA8
:100CE0009F935BD51F920F93BF92AF922C8D2F9342
:100CF0008B8D8F9352D51F921F93BF92AF923F92CD
:100D00002F924BD50FB6F894DEBF0FBECDBFC12CCE
:100D1000D12CE12CF12C0FEF1FEF9E012F5F3F4FE5
:100D200041E050E060E570E080E491E060DE930136
:100D300041E050E064E670E080E491E058DE9E011E
:100D40002D5E3F4F41E050E068E770E080E491E0C5
:100D50004EDE9E012F5E3F4F41E050E06CE870E0B8
:100D600080E491E044DE9E01215F3F4F41E050E08E
:100D700060EA70E080E491E03ADE910141E050E009
:100D800064EB70E080E491E032DE911008C080E016
:100D90002CD2882321F080E090E0FFD0DBD09D8D25
:100DA00091110FC082E021D2882329F080E090E0E9
:100DB000F4D0D6D006C089D1F2D266D0892B09F4FE
:100DC00008D4411008C081E010D2882321F080E0CF
:100DD00090E0E3D0CBD0511008C083E006D2882346
:100DE00021F080E090E0D9D0C7D0811003C084D238
:100DF0008111C8D080EE9FEFD0D08FE39CE901979E
:100E0000F1F700C0000038CF4370413059F028F0AE
:100E1000423071F0433091F016C0660F660F962F86
:100E2000980F11C0645F880F880F962F981B0BC016
:100E30009FE0981B660F660F961B05C0880F880FF2
:100E40008D5F982F961B892F08950F931F930FEF97
:100E50001FEF26E331E04EED50E068E070E08AE0FD
:100E600090E015DD28E331E040EE50E066E070E010
:100E700088E090E00CDD1F910F910895E9E0F2E029
:100E8000108285E0818308959F92AF92BF92CF92A6
:100E9000DF92EF92FF920F931F93CF93DF936FD464
:100EA00067E070E0DCD3FC01FF27EE0FFF1FE25D7F
:100EB000F74FD081C181D0930C02C0930D02DEDFC9
:100EC000E9E0F2E0B2808081C1800C2C000CDD08EA
:100ED0002EE08202C00CD11C1124C601880F991F7C
:100EE000FC01EE54F74F6F01ED2EFC2ED0E0912C5B
:100EF000A12C1CC04B2D6D2F8C2F86DFF701E80F26
:100F0000F11D8081882339F0F80180819181892B3E
:100F100011F0E92CFA2CCF5F0E5F1F4FC43051F750
:100F2000DF5FFCE1CF0ED11CD43019F08601C0E0A8
:100F3000E1CFF0920D02E0920C02C701DF91CF9158
:100F40001F910F91FF90EF90DF90CF90BF90AF90E7
:100F50009F900895E9E0F2E08081815080830895B8
:100F6000E9E0F2E080818F5F80830895E9E0F2E0BC
:100F700081818F5F81830895E9E0F2E08181815072
:100F80008183089580910B028F5F843018F48093E1
:100F90000B02089510920B0208952F923F924F92E8
:100FA0005F926F927F928F929F92AF92BF92CF92F9
:100FB000DF92EF92FF920F931F93CF93DF93E9E0BD
:100FC000F2E050807180C12CD12C7F01212C482E61
:100FD000392E59C000910C0210910D02F701428187
:100FE000662D8C2F11DFF801E80FF11D8081882319
:100FF00019F0042D132D02C000E0122DF70181819C
:101000009E01280F311D87FD3A95C9012E3031050B
:1010100050F52081A601420F511D27FD5A959A01D6
:101020004431510500F5220F331FF901EE0FFF1F68
:10103000EE0FFF1FEE0FFF1FE21BF30BE80FF91F70
:10104000EE0FFF1FEE54F74F80819181892B59F4E9
:101050005FE0579DC0011124AC01475E5F4F9401D2
:10106000B5010C9642DC73942196C430D10509F089
:10107000B1CFF70171805394FFEFCF1ADF0A24E05C
:10108000C216D10479F06C2C3FE0359D400111244B
:1010900054014AE0A40EB11C57E1850E911CC0E03A
:1010A000D0E098CFDF91CF911F910F91FF90EF90FB
:1010B000DF90CF90BF90AF909F908F907F906F9078
:1010C0005F904F903F902F9008952F923F924F92B4
:1010D0005F926F927F928F929F92AF92BF92CF92C8
:1010E000DF92EF92FF920F931F93CF93DF93E12C48
:1010F000F12C0F2EF9E0CF2EF2E0DF2EF02D5EC0A6
:101100003C2EF60150808701050D111D57FC1A95E4
:10111000043111050CF046C02180822C022C000CF9
:1011200099083E01C4018C0F9D1F0E97D8F5A09021
:101130000C02B0900D024281642D8C2F65DEF5010A
:10114000E80FF11D8081882369F1000F111FC8018C
:10115000880F991F880F991F880F991F801B910B6B
:10116000880E991E860C971CF401EE0FFF1FEE549B
:10117000F74F81E090E091838083320CEFE0E39DB4
:10118000C0011124540CE59DB00111249B01295E7E
:101190003F4FAC01475E5F4F665F7F4F00E018EF47
:1011A0000C96A3DB2196C430D10509F0A9CFFFEF3F
:1011B000EF1AFF0A24E0E216F10421F04E2CC0E001
:1011C000D0E09ECFDF91CF911F910F91FF90EF90D4
:1011D000DF90CF90BF90AF909F908F907F906F9057
:1011E0005F904F903F902F9008956F927F928F92D3
:1011F0009F92AF92BF92CF92DF92EF92FF920F93A6
:101200001F93CF93DF93E9E0F2E0A080618081300B
:1012100041F028F0823039F0833039F007C0AA94C9
:1012200005C0639403C0A39401C06A9480900C022B
:1012300090900D0270900B020A2C000CBB08C501A7
:10124000880F991F6C01CC0CDD1CCC0CDD1CCC0C68
:10125000DD1CC81AD90AC60CD11C67FCDA94C60179
:10126000880F991F9C012E54374F6901D0E027C089
:10127000472D6D2F8C2FC8DDF401E80FF11D808103
:10128000882361F00E30110508F534E1A316B1048E
:10129000F8F4F70180819181892BE1F4CF5FF2E0CE
:1012A000EF0EF11C0F5F1F4FC43011F7DF5F2CE111
:1012B000C20ED11C3FEFA31AB30AD43069F0062D39
:1012C000062C000C110B7601C0E0D2CF80E005C0E7
:1012D00080E003C080E001C081E0DF91CF911F91E9
:1012E0000F91FF90EF90DF90CF90BF90AF909F90C5
:1012F0008F907F906F900895AF92BF92CF92DF92C0
:10130000EF92FF920F931F93CF93DF93E9E0F2E008
:10131000E080A1808281BB24B394B80E843058F160
:1013200010920B0228C04B2D6D2F8C2F6DDDF60116
:10133000E80FF11D8081882339F00E301105A8F4E3
:1013400084E1E816F10498F4CF5F0F5F1F4FC430BB
:1013500051F7DF5F8FEFE81AF80AD43051F00A2D09
:101360000A2C000C110BC0E0DECF80E00DC080E045
:101370000BC081E009C0C0900C02D0900D020E2C71
:10138000000CFF08D0E0EBCFDF91CF911F910F91C0
:10139000FF90EF90DF90CF90BF90AF9008952F9285
:1013A0003F924F925F926F927F928F929F92AF92F5
:1013B000BF92CF92DF92EF92FF920F931F93CF9342
:1013C000DF930F2EF2EBEF2EF8E0FF2EF02D0F2E15
:1013D000FAE06F2E712CF02D412C312C0F2EFFE0F6
:1013E0005F2EF02D7FC081919191892B09F02F5FA5
:1013F000AE16BF06C1F77DC0AE01435F5F4F00E090
:1014000010E09601B301CE0170DAF701119211924A
:101410007F012F96CE3DD10579F7CCE0D0E0812C2D
:10142000912C40C0422D50E09A01220F331FC90178
:10143000880F991F880F991F880F991F821B930B84
:101440008E0D9F1DFC01EE0FFF1FEA56F74FA08186
:10145000B181880F991FFC01EE54F74FB183A0832F
:10146000549E9001559E300D1124B901665F7F4F47
:10147000295E3F4FAB2B31F000E018EFA601CE0103
:1014800034DA05C000E010E0A601CE012EDA2A947D
:101490002110C8CFFFEF8F1A9F0A2F962EE08216D9
:1014A000910449F04420B1F374016E018DE0C80E3F
:1014B000D11C242CB7CF33948091B0089091B108FF
:1014C000E4E6E39D800D911D11249093B108809373
:1014D000B008D4DC4394FFE06F0E711C750124E169
:1014E000421681F057018CE1A80EB11CF70120E0F3
:1014F0007ACF2E3071F76301EDE0CE0ED11CCCE037
:10150000D0E07ACFDF91CF911F910F91FF90EF90B4
:10151000DF90CF90BF90AF909F908F907F906F9013
:101520005F904F903F902F900895E2EBF8E022EE0D
:101530003AE009C0119211928E179F07D9F7FC016A
:101540008217930719F0CF014C96F4CF089580913C
:10155000B0089091B1080895AF92BF92CF92DF92F8
:10156000EF92FF920F931F93CF93DF935C010F2EA7
:10157000FAE0EF2EF12CF02D1AC0AE01435F5F4F61
:1015800085019601B701CE01B0D98FE39CE901979F
:10159000F1F700C000002F96CE3DD10571F79FE016
:1015A000E90EF11C86E3E81681E0F80639F06701E0
:1015B0009DE0C90ED11CCCE0D0E0DFCFDF91CF9110
:1015C0001F910F91FF90EF90DF90CF90BF90AF9061
:1015D0000895CF92EF92FF920F931F93C12CE12CAD
:1015E000F12C0FEF1FEF24E238E044E064E670E0F6
:1015F0008CE390E0FCD929E238E044E066E970E051
:101600008CE390E0F4D92FEF83ED90E321508040FC
:101610009040E1F700C000008FEF9FEF9DDF85DF76
:1016200000E010E025E331E04DED50E069E070E0CE
:101630008BE090E05AD922DC27DC1F910F91FF90BC
:10164000EF90CF900895991B79E004C0991F9617E9
:1016500008F0961B881F7A95C9F78095089597FB27
:10166000072E16F4009406D077FD08D02DD007FC85
:1016700005D03EF4909581959F4F089570956195A2
:101680007F4F0895A1E21A2EAA1BBB1BFD010DC0BE
:10169000AA1FBB1FEE1FFF1FA217B307E407F50722
:1016A00020F0A21BB30BE40BF50B661F771F881FFE
:1016B000991F1A9469F760957095809590959B0194
:1016C000AC01BD01CF010895AA1BBB1B51E107C0AE
:1016D000AA1FBB1FA617B70710F0A61BB70B881FC2
:1016E000991F5A95A9F780959095BC01CD01089551
:1016F0008F929F92AF92BF92CF92DF92EF92FF9222
:10170000CF93DF93EC01688179818A819B81611598
:1017100071058105910521F464E279ED8BE597E08F
:101720002DE133EF41E050E013D349015A019B0111
:10173000AC01A7EAB1E428D36B017C01ACEEB4EFB5
:10174000A50194012DD3DC01CB018C0D9D1DAE1D97
:10175000BF1DB7FF03C00197A109B04888839983D3
:10176000AA83BB839F77DF91CF91FF90EF90DF90AB
:10177000CF90BF90AF909F908F900895B9CF80E0A9
:1017800092E0B6CFA0E0B0E0809300029093010217
:10179000A0930202B093030208950F931F93CF9377
:1017A000DF93CDB7DEB72E970FB6F894DEBF0FBE2E
:1017B000CDBF0E891F8986E08C831A8309838FEF42
:1017C0009FE79E838D83AE01465E5F4F688D798D66
:1017D000CE01019610D0EF81F885E00FF11F108245
:1017E0002E960FB6F894DEBF0FBECDBFDF91CF911E
:1017F0001F910F9108952F923F924F925F926F9297
:101800007F928F929F92AF92BF92CF92DF92EF9290
:10181000FF920F931F93CF93DF93CDB7DEB72B9734
:101820000FB6F894DEBF0FBECDBF6C017B018A01FD
:10183000FC0117821682838181FFBFC1CE01019610
:101840003C01F6019381F70193FD859193FF81910E
:101850007F01882309F4ADC1853239F493FD859168
:1018600093FF81917F01853221F4B60190E0D6D1BA
:10187000E8CF912C212C312CFFE1F315D8F08B32DD
:1018800079F038F4803279F08332A1F4232D20618D
:101890001DC08D3261F0803369F4232D216016C0A4
:1018A000832D8260382EE32DE4603E2E2AC0F32D76
:1018B000F8601DC037FC2DC020ED280F2A3040F005
:1018C0008E32B9F436FC75C1232D2064322E19C036
:1018D00036FE06C08AE0989E200D1124922E11C07B
:1018E000EAE02E9E200D1124222EF32DF0623F2ED1
:1018F00008C08C3621F4832D8068382E02C08836CB
:1019000041F4F70193FD859193FF81917F0181114E
:10191000B3CF982F9F7D9554933028F40C5F1F4FC1
:101920009FE399830DC0833631F0833771F083359F
:1019300009F055C020C0F801808189830E5F1F4FD8
:1019400088248394912C530112C02801F2E04F0E99
:10195000511CF801A080B18036FE03C0692D70E0F3
:1019600002C06FEF7FEFC5014ED14C018201F32D14
:10197000FF773F2E15C0280122E0420E511CF801CE
:10198000A080B18036FE03C0692D70E002C06FEF09
:101990007FEFC5012DD14C01F32DF0683F2E820160
:1019A00033FC19C0822D90E088169906A0F4B60188
:1019B00080E290E033D12A94F5CFF50137FC859190
:1019C00037FE81915F01B60190E028D121102A9461
:1019D00021E0821A91088114910479F7E1C08436DC
:1019E00011F0893639F5F80137FE07C06081718141
:1019F000828193810C5F1F4F08C060817181072E27
:101A0000000C880B990B0E5F1F4FF32DFF763F2EB6
:101A100097FF09C090958095709561957F4F8F4F86
:101A20009F4FF0683F2E2AE030E0A30133D1882E8B
:101A3000861844C0853731F4232D2F7EB22E2AE03C
:101A400030E025C0932D997FB92E8F36C1F018F460
:101A5000883579F0AEC0803719F0883721F0A9C0F9
:101A6000E92FE061BE2EB4FE0DC0FB2DF460BF2E49
:101A700009C034FE0AC0292F2660B22E06C028E015
:101A800030E005C020E130E002C020E132E0F801A2
:101A9000B7FE07C060817181828193810C5F1F4F07
:101AA00006C06081718180E090E00E5F1F4FA3014E
:101AB000F1D0882E8618FB2DFF773F2E36FE0DC005
:101AC000232D2E7FA22E891458F434FE0BC032FC35
:101AD00009C0832D8E7EA82E05C0B82CA32C03C070
:101AE000B82C01C0B92CA4FE0FC0FE01E80DF11DF9
:101AF0008081803321F49A2D997EA92E09C0A2FEFF
:101B000006C0B394B39404C08A2D867809F0B394C8
:101B1000A3FC10C0A0FE06C0B21480F4280C922CC6
:101B20009B180DC0B21458F4B60180E290E076D054
:101B3000B394F8CFB21418F42B1802C0982C212CAF
:101B4000A4FE0FC0B60180E390E068D0A2FE16C0EC
:101B5000A1FC03C088E790E002C088E590E0B601F0
:101B60000CC08A2D867851F0A1FE02C08BE201C024
:101B700080E2A7FC8DE2B60190E050D0891430F4E9
:101B8000B60180E390E04AD09A94F8CF8A94F301AA
:101B9000E80DF11D8081B60190E040D08110F6CFB4
:101BA000222009F44ECEB60180E290E037D02A948C
:101BB000F7CFF6018681978102C08FEF9FEF2B96BA
:101BC0000FB6F894DEBF0FBECDBFDF91CF911F914E
:101BD0000F91FF90EF90DF90CF90BF90AF909F90CC
:101BE0008F907F906F905F904F903F902F900895CF
:101BF000FC010590615070400110D8F780959095D8
:101C00008E0F9F1F0895FC016150704001900110DC
:101C1000D8F7809590958E0F9F1F08950F931F936F
:101C2000CF93DF93FB01238121FD03C08FEF9FEF53
:101C30002CC022FF16C0468157812481358142176E
:101C4000530744F4A081B1819D012F5F3F4F318341
:101C500020838C93268137812F5F3F4F37832683E4
:101C600014C08B01EC01FB010084F185E02D199576
:101C7000892BE1F6D80116968D919C9117970196C4
:101C800017969C938E931697CE01DF91CF911F915B
:101C90000F910895FA01AA27283051F1203181F1DE
:101CA000E8946F936E7F6E5F7F4F8F4F9F4FAF4F64
:101CB000B1E03ED0B4E03CD0670F781F891F9A1F77
:101CC000A11D680F791F8A1F911DA11D6A0F711D2B
:101CD000811D911DA11D20D009F468943F912AE037
:101CE000269F11243019305D3193DEF6CF0108951F
:101CF000462F4770405D4193B3E00FD0C9F7F6CF50
:101D0000462F4F70405D4A3318F0495D31FD405217
:101D1000419302D0A9F7EACFB4E0A69597958795AD
:101D200077956795BA95C9F700976105710508958C
:101D30009B01AC010A2E0694579547953795279538
:101D4000BA95C9F7620F731F841F951FA01D0895D0
:101D5000052E97FB16F400940FD057FD05D092DCAA
:101D600007FC02D046F408C0509540953095219567
:101D70003F4F4F4F5F4F08959095809570956195B7
:101D80007F4F8F4F9F4F08950FD0A59F900DB49F09
:101D9000900DA49F800D911D11240895B7FFF4CFDD
:101DA000F3DF821B930B0895A29FB001B39FC00184
:101DB000A39F700D811D1124911DB29F700D811D77
:0A1DC0001124911D0895F894FFCF3F
:101DCA000100000001010101010005009C08000852
:101DDA0010205F000000000000000000000000006A
:101DEA000000000000000010101010101000100079
:101DFA000000000000000028282800000000000061
:101E0A000000000000000028287C28507C50500068
:101E1A0000000000000010385450381414543810D0
:101E2A000000000000000044A8A850141A2A240048
:101E3A000000000000000000000000000000000098
:101E4A000000000000000010101000000000000058
:101E5A000000000000000010202020202020202068
:101E6A0010000000000000201010101010101010B8
:101E7A0020000000000000103810280000000000B8
:101E8A0000000000000000000010107C101000008C
:101E9A000000000000000000000000000000101018
:101EAA0020000000000000000000000030000000D8
:101EBA000000000000000000000000000000100008
:101ECA000000000000000008080810102020200070
:101EDA0000000000000000304848484848483000E8
:101EEA000000000000000010305010101010100008
:101EFA000000000000000030480808102040780068
:101F0A00000000000000003048083008084830008F
:101F1A000000000000000008182828487C08080073
:101F2A000000000000000038204070080848300017
:101F3A000000000000000030484050684848300067
:101F4A000000000000000078081010102020200077
:101F5A00000000000000003048483048484830007F
:101F6A0000000000000000304848582808483000A7
:101F7A000000000000000000001000000000100037
:101F8A000000000000000000001000000000101017
:101F9A002000000000000000000830403008000067
:101FAA000000000000000000000078007800000037
:101FBA00000000000000000000403008304000002F
:101FCA000000000000000030480810202000200017
:101FDA00000000000000003844B64A4A4A4A3C82DF
:101FEA0044380000000000102828282838444400FB
:101FFA00000000000000007844447844444478001B
:10200A0000000000000000384484808084443800C6
:10201A000000000000000070484444444448700036
:10202A00000000000000007C40407C4040407C00F2
:10203A00000000000000003C202038202020200062
:10204A0000000000000000384484809C844438006A
:10205A00000000000000004444447C44444444001E
:10206A0000000000000000101010101010101000E6
:10207A00000000000000000808080808484830006E
:10208A0000000000000000444850705048484400D6
:10209A0000000000000000404040404040407800FE
:1020AA000000000000000082C6C6AAAAAAAA9200DE
:1020BA000000000000000084C4A4A494948C84004E
:1020CA000000000000000030488484848448300006
:1020DA00000000000000007844444478404040007A
:1020EA0000000000000000304884848484583404CE
:1020FA000000000000000078444478504844420040
:10210A00000000000000003844403804444438000D
:10211A00000000000000007C1010101010101000C9
:10212A000000000000000084848484848448300015
:10213A000000000000000044442828282828100035
:10214A000000000000000092AAAAAAAAAAAA4400B3
:10215A000000000000000042242418182424420031
:10216A000000000000000044282810101010100081
:10217A00000000000000007C0408101020407C00D1
:10218A000000000000000030202020202020202015
:10219A003000000000000020201010101008080075
:1021AA000000000000000030101010101010101075
:1021BA00300000000000001028282800000000005D
:1021CA000000000000000000000000000000007C89
:1021DA0000000000000000201000000000000000C5
:1021EA00000000000000000000700838484838006D
:1021FA000000000000000040405068484868500055
:10220A000000000000000000003048404048300054
:10221A000000000000000008082858484858280014
:10222A0000000000000000000030487840483000FC
:10223A0000000000000000181038101010101000E4
:10224A0000000000000000000028584848582808EC
:10225A0070000000000000404050684848484800AC
:10226A0000000000000000100010101010101000F4
:10227A0000000000000000100010101010101010D4
:10228A0030000000000000404048506050484800BC
:10229A0000000000000000101010101010101000B4
:1022AA00000000000000000000A6DA92929292005C
:1022BA00000000000000000000506848484848003C
:1022CA000000000000000000003048484848300084
:1022DA0000000000000000000050684848685040B4
:1022EA00400000000000000000285848485828080C
:1022FA0008000000000000000028302020202000F4
:10230A000000000000000000007048201048300063
:10231A000000000000000010103810101010180003
:10232A000000000000000000004848484858280003
:10233A000000000000000000004444282828100083
:10234A0000000000000000000092AAAAAAAA440005
:10235A00000000000000000000442810102844007B
:10236A000000000000000000004428282810101077
:10237A0020000000000000000078081020407800CB
:10238A0000000000000000302020204020202020F3
:10239A001000000000000010101010101010101093
:1023AA00100000000000003010101008101010106B
:1023BA003000000000000000000074580000000017
:1023CA000000000A00252E3466005B5278206563FF
:1023DA00686F5D3A200054455452495300253664CB
:1023EA000025640047414D45004F564552009C0860
:1023FA008C087C086C085C084C083C08000001004A
:10240A0000010100000001000000000000010000BE
:10241A0000010000000101000000000000000100AE
:10242A00000001000001010000000000000000009F
:10243A00000101000001010000000000000100008D
:10244A00000101000000010000000000000001007E
:10245A00000101000001000000000000000001006E
:0C246A0000000100000001000000010063
:00000001FF
