S01E00005354373739365F5446545F446576656C6F706D656E742E7372656353
S113000071C000008FC000008DC000008BC00000D4
S113001089C0000087C0000085C0000083C00000C4
S113002081C000007FC000007DC000007BC00000D4
S113003079C0000077C0000075C0000073C00000E4
S113004071C000006FC000006DC000006BC00000F4
S113005069C0000067C0000065C0000084C00000E3
S113006061C0000086C500005DC000005BC00000E8
S113007059C0000057C0000055C0000053C0000024
S113008051C000004FC000004DC000004BC0000034
S113009049C0000047C0000045C0000043C0000044
S11300A041C000003FC000003DC000003BC0000054
S11300B039C0000037C0000035C0000033C0000064
S11300C031C000002FC000002DC000002BC0000074
S11300D029C0000027C0000025C0000023C0000084
S11300E021C0000011241FBECFEFD1E2DEBFCDBF7F
S11300F000E00CBF18E0A0E0B2E0E4EFFCE100E0B7
S11301000BBF02C007900D92AA39B107D9F72BE0B3
S1130110AAE9B8E001C01D92A533B207E1F76BD597
S11301200C94780E6DCF14BC83E085BD81E0809380
S11301306E0016BC0895F7CF0895279A94B5906879
S113014094BD94B5936094BD853618F08FEF87BD48
S113015008952FEF829FC001112464E670E00E948D
S1130160C40A67BD08951F920F920FB60F9211240F
S11301702F933F938F939F93AF93BF938091D40A10
S11301809091D50AA091D60AB091D70A3091D30A9A
S113019023E0230F2D3720F40196A11DB11D05C0C6
S11301A026E8230F0296A11DB11D8093D40A9093D3
S11301B0D50AA093D60AB093D70A2093D30A809184
S11301C0CF0A9091D00AA091D10AB091D20A019697
S11301D0A11DB11D8093CF0A9093D00AA093D10A98
S11301E0B093D20ABF91AF919F918F913F912F917C
S11301F00F900FBE0F901F90189580B3807E80BB28
S113020081B38F6181BB81E080939B0880939A08BE
S11302100895823091F028F4882341F0813049F028
S11302201AC0833079F0843091F015C08FB1817099
S113023008958FB18695817008958FB182FB8827C8
S113024080F908958FB183FB882780F908958FB1D1
S113025082958170089582E008957F928F929F9293
S1130260AF92BF92CF92DF92EF92FF920F931F93C0
S1130270CF93DF9300D01F921F92CDB7DEB7DD245A
S1130280D394CC24C3943CC08F2DC3DF811101C00F
S1130290E39401501109C1F784E08E1540F41092E3
S11302A09B0880919A08811108C08C2D09C0C092C6
S11302B09B08C0929A088C2D03C010929A0880E083
S11302C092E0F91699F09F1530F0FF2059F091E073
S11302D0F91651F011C093E0F91651F094E0F916B3
S11302E049F00AC0782E0BC0882E09C0982E07C08A
S11302F0A82E05C0B82E0BC084E08D1540F0D39411
S1130300FF24FA94FD0C05E010E0E12CBDCF272D6D
S1130310382D492D5A2D6B2D70E080E090E00F9020
S11303200F900F900F900F90DF91CF911F910F912D
S1130330FF90EF90DF90CF90BF90AF909F908F9001
S11303407F9008952898759AF8D3289A0895289844
S11303507598F3D3289A089574982FEF81EE94E05A
S1130360215080409040E1F700C00000749A2FEFC4
S113037080E792E0215080409040E1F700C0000007
S11303800895AF92BF92CF92DF92EF92FF920F93B4
S11303901F93CF93DF93B82EA92EF62EE72ED42EDB
S11303A0C52E122F032FC8EDDAE08985D0DF8A2D00
S11303B0C9DF8B2DC7DF8C2DC5DF8D2DC3DF8B856A
S11303C0C6DF8E2DBFDF8F2DBDDF802FBBDF812FDA
S11303D0B9DF8F81BCDFDF91CF911F910F91FF9027
S11303E0EF90DF90CF90BF90AF9008959B01AC0148
S11303F0C8CF0895E8EDFAE02AE230E03287218799
S11304002BE230E0348723872CE230E030872783E7
S11304108130A9F028F0823009F1833071F1089518
S1130420E8EDFAE080E491E09183808380EE91E04E
S11304309383828386E38BDF88E484CF0895E8ED99
S1130440FAE080EE91E09183808380E491E09383ED
S1130450828386E37CDF88E275CF0895E8EDFAE0D5
S113046080E491E09183808380EE91E093838283A2
S113047086E36DDF88E866CF0895E8EDFAE080EE64
S113048091E09183808380E491E09383828386E387
S11304905EDF88EE57CF089550CE0895CF93C82FCE
S11304A02898759A892F49D38C2F47D3289ACF91AE
S11304B00895CF92DF92EF92FF920F931F93CF9301
S11304C0DF937C01C8EDDAE02A813B8121503109B8
S11304D0488159814150510960E070E080E090E02A
S11304E050DF2898759A8A819B81892BB1F41FC0AB
S11304F0C0E0D0E0C701D2DF2196F801808191816C
S1130500C817D907B8F3FFEFCF1ADF0AF8018281C1
S11305109381C816D90628F00AC0C12CD12C08ED45
S11305201AE0F80180819181892B11F7ECCF289A88
S1130530DF91CF911F910F91FF90EF90DF90CF90BB
S11305400895D3D28DB180638DB9F5DD05DF80EFD9
S1130550FEDE83ECF7DE80EFFADE86E9F3DE86E387
S1130560F6DE88E6EFDE8AE3F2DE85E0EBDE80EBA2
S1130570EEDE80E8E7DE86EBEADE80E0E3DE82E0C2
S1130580E1DE85EBE4DE82E0DDDE83E0DBDE80E0DD
S1130590D9DE84E0D7DE81EBDADE80E8D3DE80E1E9
S11305A0D1DE84EBD4DE80E0CDDE87EBD0DE86ECDA
S11305B0C9DE85ECCCDE84E2C5DE84EEC8DE81E3F0
S11305C0C1DE88EEC4DE80E4BDDE8AE8BBDE80E006
S11305D0B9DE80E0B7DE89E2B5DE89E1B3DE85EA23
S11305E0B1DE83E3AFDE82ECB2DE87EAB0DE80EE1A
S11305F0AEDE80EFA7DE89E0A5DE83E1A3DE82E143
S1130600A1DE82E19FDE8BE29DDE8CE39BDE84E44F
S113061099DE8BE497DE8BE195DE88E193DE87E15A
S113062091DE8DE18FDE81E28DDE81EE90DE80EF62
S113063089DE89E087DE83E185DE8CE083DE8DE080
S113064081DE87E27FDE8BE37DDE84E47BDE8DE486
S113065079DE8BE077DE87E175DE87E173DE8DE19D
S113066071DE81E26FDE86E372DE8CEE6BDE80EF9C
S11306706EDE83EC67DE80EF6ADE89E663DE83E1AB
S113068066DE81E164DE89E262DE80E0B3DE84E678
S113069054DD80E090E00DCF0895CF93DF93EA011D
S11306A0A5DECE01FBDEDF91CF910895AF92BF921C
S11306B0CF92DF92EF92FF920F931F93CF93DF932A
S11306C04817590728F4F82FE92FCA014F2F5E2F36
S11306D02617370728F4F62FE72FB9012F2F3E2FBF
S11306E07A01EFEFEE1AFE0AE81AF90A5901EFEF60
S11306F0AE1ABE0AA61AB70A44DEA114B10481F4E4
S113070015C0C0E0D0E0C801C9DE2196EC16FD0694
S1130710D1F78FEFC81AD80AAC14BD0419F406C077
S1130720C12CD12CE114F10461F7F3CFDF91CF9107
S11307301F910F91FF90EF90DF90CF90BF90AF90FB
S113074008952F923F924F925F926F927F928F9271
S11307509F92AF92BF92CF92DF92EF92FF920F934C
S11307601F93CF93DF93CDB7DEB728970FB6F894D6
S1130770DEBF0FBECDBF1A8309836A01C81AD90A26
S11307803901661A770A1C012B011C141D045CF044
S1130790C114D10469F0D194C194D1088FEF9FEFB3
S11307A09C838B8307C081E090E09C838B8302C091
S11307B01C821B82161417045CF06114710469F026
S11307C07194619471088FEF9FEF9E838D8307C0AE
S11307D081E090E09E838D8302C01E821D8276019B
S11307E0C614D7040CF4730157019FEFA91AB90A70
S11307F000E010E018861F82812C912C49815A81D7
S1130800B201C1014ADF8F8198858C0D9D1D9887A7
S11308108F83060D171DE816F90644F48E199F09F7
S113082098878F838B819C81280E391EE016F106F0
S113083034F40E191F098D819E81480E591E9FEFB5
S1130840891A990AA814B904C8F628960FB6F89418
S1130850DEBF0FBECDBFDF91CF911F910F91FF90EF
S1130860EF90DF90CF90BF90AF909F908F907F904C
S11308706F905F904F903F902F9008958F929F922A
S1130880AF92BF92CF92DF92EF92FF920F931F939A
S1130890CF93DF934C017B01EA0169019B0151DF96
S11308A09601A401B701C4014CDF9601AE01B60163
S11308B0C40147DF9601AE01B701CE0142DFDF91EB
S11308C0CF911F910F91FF90EF90DF90CF90BF9049
S11308D0AF909F908F9008950F931F93E7DE1F9121
S11308E00F9108953F924F925F926F927F928F92F1
S11308F09F92AF92BF92CF92DF92EF92FF920F93AB
S11309001F93CF93DF936A01590100526E2C712C0F
S11309102301440C551C440C551C440C551C440C1C
S1130920551C660C771C660C771C660C771C9B01A7
S113093021503109240D351DAC0141505109460D9A
S1130940571D1FDD14141504BCF520E1029FC001DE
S11309501124312C9C01275F3D4F490107E010E031
S1130960832D6E2D05D6F401E80FF11DC5811614F3
S11309701704E4F4F12CD0E08F2D6E2DF9D59801F5
S1130980281B3109C9019E0102C0359527958A9516
S1130990E2F720FF03C0C60181DD02C0C5017EDD90
S11309A0F3948F2D90E08615970534F33394832DBB
S11309B090E084159505A4F2DF91CF911F910F91DA
S11309C0FF90EF90DF90CF90BF90AF909F908F906B
S11309D07F906F905F904F903F9008952F923F9239
S11309E04F925F926F927F928F929F92AF92BF923B
S11309F0CF92DF92EF92FF920F931F93CF93DF93E7
S1130A0000D01F92CDB7DEB79C838B834B01D42ECD
S1130A101A83098317011C2DF901008180EE800FD0
S1130A208F3508F04BC08091D80A9091D90A01976C
S1130A304B815C818417950708F440C08091DA0AE1
S1130A409091DB0A019786179707C0F14D2C512C22
S1130A50440C551C440C551C440C551C59015FEFA7
S1130A60A51AB50A0F2EF8ED6F2EFAE07F2EF02DA1
S1130A700FC0F3018081918101972B813C81821702
S1130A809307E0F082819381019788159905B0F06E
S1130A90C12EED2C910149815A81B4018B819C8135
S1130AA021DF4B815C81440D551D5C834B83F50133
S1130AB001915F0180EE800F8F35D8F20F900F9077
S1130AC00F900F90DF91CF911F910F91FF90EF90B6
S1130AD0DF90CF90BF90AF909F908F907F906F905A
S1130AE05F904F903F902F90089580919C08909133
S1130AF09D08892B09F584B1876084B98CB5806120
S1130B008CBD8CB58F7D8CBD8CB5877F8CBD8CB531
S1130B108B7F8CBD8CB58D7F8CBD8CB58E7F8CBD51
S1130B208DB581608DBD8CB580648CBD81E090E015
S1130B3090939D0880939C0808958EBD0DB407FE84
S1130B40FDCF8EB50895CF93DF93FC01208122233E
S1130B5069F0DC011196E0ECF0E0C6ECD0E09081A5
S1130B6095FFFDCF28832D912111F9CFDF91CF91EE
S1130B7008951F920F920FB60F9211240BB60F9285
S1130B802F933F934F935F936F937F938F939F9391
S1130B90AF93BF93EF93FF938091C600E0919E08BB
S1130BA091E09E0F90939E08F0E0E35FF44F808302
S1130BB08A3071F4E0919E08F0E0E35FF44F108214
S1130BC085E098E0C0DF8DE09BE0BDDF10929E08D9
S1130BD0FF91EF91BF91AF919F918F917F916F9111
S1130BE05F914F913F912F910F900BBE0F900FBECD
S1130BF00F901F901895CF93DF93CDB7DEB765970D
S1130C000FB6F894DEBF0FBECDBF9BDC84E144DC9D
S1130C1081E0F0DBF2DAF7D0C12CD12CE12CF12CFD
S1130C2000EE1FEF21E138E042E050E064E170E0C3
S1130C3080E491E0D3DE0F2EF8E1AF2EF8E0BF2E72
S1130C40F02D2E018EE0480E511C3E019CE0690EF1
S1130C50711CCE010A96998B888B02979B8B8A8B89
S1130C6002979D8B8C8BF9DA922EF32E042F152F7D
S1130C7029833A834B835C836D83832E242E352E04
S1130C801F922F93BF92AF925F924F921BD51F92E8
S1130C90FF92BF92AF927F926F9214D51F920F93DF
S1130CA0BF92AF9299899F9388898F930BD51F9296
S1130CB01F93BF92AF929B899F938A898F9302D58A
S1130CC01F921F93BF92AF929D899F938C898F939C
S1130CD0F9D4C12CD12CE12CF12C0FEF1FEF920190
S1130CE041E050E064E670E080E491E077DE930157
S1130CF041E050E068E770E080E491E06FDE9E013F
S1130D00265F3F4F41E050E06CE870E080E491E002
S1130D1065DE9E01285F3F4F41E050E060EA70E0ED
S1130D2080E491E05BDE9E012A5F3F4F41E050E0AA
S1130D3064EB70E080E491E051DE0FB6F894DEBF1E
S1130D400FBECDBF911004C080E090E004D1E0D08C
S1130D50211014C082E027D2882329F080E090E09B
S1130D60FAD0DCD00BC08FD105D36CD0892B31F4F1
S1130D70B6D380E090E0C5D35FD064D0311008C012
S1130D8081E011D2882321F080E090E0E4D0CCD03F
S1130D90811008C083E007D2882321F080E090E02E
S1130DA0DAD0C8D08D81811103C083D28111C8D01B
S1130DB080EE9FEFD0D08FE39CE90197F1F700C05C
S1130DC0000051CF4370413059F028F0423071F0A7
S1130DD0433091F016C0660F660F962F980F11C01E
S1130DE0645F880F880F962F981B0BC09FE0981B99
S1130DF0660F660F961B05C0880F880F8D5F982FAE
S1130E00961B892F08950F931F930FEF1FEF26E36F
S1130E1031E04EED50E068E070E08AE090E02EDDD5
S1130E2028E331E040EE50E066E070E088E090E0D6
S1130E3025DD1F910F910895E4E0F2E0108285E032
S1130E40818308959F92AF92BF92CF92DF92EF92E7
S1130E50FF920F931F93CF93DF9326D467E070E044
S1130E6093D3FC01FF27EE0FFF1FE55EF74FD08100
S1130E70C181D0930702C0930802DEDFE4E0F2E010
S1130E80B2808081C1800C2C000CDD082EE082022F
S1130E90C00CD11C1124C601880F991FFC01E15616
S1130EA0F74F6F01ED2EFC2ED0E0912CA12C1CC02D
S1130EB04B2D6D2F8C2F86DFF701E80FF11D8081FC
S1130EC0882339F0F80180819181892B11F0E92C74
S1130ED0FA2CCF5F0E5F1F4FC43051F7DF5FFCE188
S1130EE0CF0ED11CD43019F08601C0E0E1CFF092CE
S1130EF00802E0920702C701DF91CF911F910F9181
S1130F00FF90EF90DF90CF90BF90AF909F900895A7
S1130F10E4E0F2E08081815080830895E4E0F2E02F
S1130F2080818F5F80830895E4E0F2E081818F5FA8
S1130F3081830895E4E0F2E0818181508183089502
S1130F40809106028F5F843018F48093060208951E
S1130F501092060208952F923F924F925F926F92E1
S1130F607F928F929F92AF92BF92CF92DF92EF9235
S1130F70FF920F931F93CF93DF93E4E0F2E050804E
S1130F807180C12CD12C7F01212C482E392E59C0BF
S1130F900091070210910802F7014281662D8C2FFF
S1130FA011DFF801E80FF11D8081882319F0042D69
S1130FB0132D02C000E0122DF70181819E01280F3C
S1130FC0311D87FD3A95C9012E30310550F5208138
S1130FD0A601420F511D27FD5A959A01443151052E
S1130FE004F5220F331FF901EE0FFF1FEE0FFF1F51
S1130FF0EE0FFF1FE21BF30BE80FF91FEE0FFF1FAD
S1131000E156F74F80819181892B59F45FE0579D18
S1131010C0011124AC01475E5F4F9401B5010C96E9
S11310205BDC73942196C430D10509F0B1CFF7018C
S113103071805394FFEFCF1ADF0A24E0C216D10463
S113104079F06C2C3FE0359D4001112454014AE0B5
S1131050A40EB11C57E1850E911CC0E0D0E098CFDE
S1131060DF91CF911F910F91FF90EF90DF90CF9080
S1131070BF90AF909F908F907F906F905F904F90B4
S11310803F902F9008952F923F924F925F926F92CC
S11310907F928F929F92AF92BF92CF92DF92EF9204
S11310A0FF920F931F93CF93DF93E12CF12C0F2E1C
S11310B0F4E0CF2EF2E0DF2EF02D5EC03C2EF601E0
S11310C050808701050D111D57FC1A950431110537
S11310D00CF046C02180822C022C000C99083E01A1
S11310E0C4018C0F9D1F0E97D8F5A0900702B090F5
S11310F008024281642D8C2F65DEF501E80FF11D95
S11311008081882369F1000F111FC801880F991F7E
S1131110880F991F880F991F801B910B880E991EA9
S1131120860C971CF401EE0FFF1FE156F74F81E088
S113113090E091838083320CEFE0E39DC0011124A1
S1131140540CE59DB00111249B01295E3F4FAC0175
S1131150475E5F4F665F7F4F00E018EF0C96BCDB85
S11311602196C430D10509F0A9CFFFEFEF1AFF0A89
S113117024E0E216F10421F04E2CC0E0D0E09ECF32
S1131180DF91CF911F910F91FF90EF90DF90CF905F
S1131190BF90AF909F908F907F906F905F904F9093
S11311A03F902F9008952F923F924F925F926F92AB
S11311B07F928F929F92AF92BF92CF92DF92EF92E3
S11311C0FF920F931F93CF93DF93E4E0F2E09081BB
S11311D02180823031F0833031F0813029F423943E
S11311E003C09F5F01C02A94C0900702D0900802F8
S11311F030900602022D022C000C110B8EE0980296
S1131200000D111D1124000F111F0156174FE12C61
S1131210F12C892E990F990827C0432D642D852D13
S1131220D1DDF601E80FF11D8081882361F08EE0A5
S11312306816710420F584E1A816B10414F58881B8
S11312409981892B01F5539422968FEF681A780AB5
S113125084E05812E2CF8FEFE81AF80A045E1F4FB9
S113126084E0E816F10489F04E2C622C022C000C68
S11312707708E801512C5401AE0CBF1CCECF80E09E
S113128005C080E003C080E001C081E0DF91CF9120
S11312901F910F91FF90EF90DF90CF90BF90AF9090
S11312A09F908F907F906F905F904F903F902F9082
S11312B008956F927F928F929F92AF92BF92CF9236
S11312C0DF92EF92FF920F931F93CF93DF93E4E0AB
S11312D0F2E080806180828177247394780E843078
S11312E080F1109206022DC0472D6D2F8C2F6ADDE0
S11312F0F601E80FF11D8081882339F00E301105C5
S1131300D0F484E1A816B104C4F4CF5F0F5F1F4F7B
S1131310C43051F78FEFE81AF80A84E0E816F104B4
S113132071F0DE2D062D062C000C110BC0E05401CB
S1131330AE0CBF1CD9CF80E00EC080E00CC081E0B1
S11313400AC0C0900702D0900802E12CF12C082CAE
S1131350000C9908E6CFDF91CF911F910F91FF9078
S1131360EF90DF90CF90BF90AF909F908F907F9041
S11313706F9008953F924F925F926F927F928F92F7
S11313809F92AF92BF92CF92DF92EF92FF920F9310
S11313901F93CF93DF930F2EFFE9EF2EF8E0FF2E7C
S11313A0F02D0F2EFAE06F2E712CF02D412C0F2E04
S11313B0FFE05F2EF02D71C081919191892B09F08E
S11313C02F5FAE16BF06C1F76FC0AE01435F5F4F1C
S11313D000E010E09601B301CE017EDAF70111922C
S11313E011927F012F96CE3DD10579F7CCE0D0E064
S11313F0812C912C40C0432D50E09A01220F331FC1
S1131400C901880F991F880F991F880F991F821B84
S1131410930B8E0D9F1DFC01EE0FFF1FED57F74F31
S1131420A081B181880F991FFC01E156F74FB18368
S1131430A083549E9001559E300D1124B901665F1E
S11314407F4F295E3F4FAB2B31F000E018EFA60130
S1131450CE0142DA05C000E010E0A601CE013CDA7C
S11314603A943110C8CFFFEF8F1A9F0A2F968EE05F
S11314708816910449F04420B1F374016E01EDE043
S1131480CE0ED11C342CB7CFD7DC4394FFE06F0EC3
S1131490711C750184E1481681F05701ECE1AE0E30
S11314A0B11CF70120E088CF2E3079F76301FDE00D
S11314B0CF0ED11CCCE0D0E088CFDF91CF911F912B
S11314C00F91FF90EF90DF90CF90BF90AF909F90DF
S11314D08F907F906F905F904F903F900895EFE9C9
S11314E0F8E02FEC3AE009C0119211928E179F0791
S11314F0D9F7FC018217930719F0CF014C96F4CF6A
S11315000895AF92BF92CF92DF92EF92FF920F9322
S11315101F93CF93DF935C010F2EFAE0EF2EF12C93
S1131520F02D14C0AE01435F5F4F85019601B701F2
S1131530CE01D2D92F96CE3DD105A1F78FE0E80E8A
S1131540F11C86E3E81681E0F80639F067018DE0C6
S1131550C80ED11CCCE0D0E0E5CFDF91CF911F9134
S11315600F91FF90EF90DF90CF90BF90AF900895D0
S1131570991B79E004C0991F961708F0961B881FE1
S11315807A95C9F78095089597FB072E16F4009471
S113159006D077FD08D02DD007FC05D03EF49095F9
S11315A081959F4F0895709561957F4F0895A1E2AD
S11315B01A2EAA1BBB1BFD010DC0AA1FBB1FEE1FC9
S11315C0FF1FA217B307E407F50720F0A21BB30B14
S11315D0E40BF50B661F771F881F991F1A9469F790
S11315E060957095809590959B01AC01BD01CF01EC
S11315F00895AA1BBB1B51E107C0AA1FBB1FA61756
S1131600B70710F0A61BB70B881F991F5A95A9F7A7
S113161080959095BC01CD0108958F929F92AF92D1
S1131620BF92CF92DF92EF92FF92CF93DF93EC01C0
S1131630688179818A819B81611571058105910594
S113164021F464E279ED8BE597E02DE133EF41E09D
S113165050E013D349015A019B01AC01A7EAB1E45C
S113166028D36B017C01ACEEB4EFA50194012DD31A
S1131670DC01CB018C0D9D1DAE1DBF1DB7FF03C04A
S11316800197A109B04888839983AA83BB839F7774
S1131690DF91CF91FF90EF90DF90CF90BF90AF900C
S11316A09F908F900895B9CF80E092E0B6CFA0E0EC
S11316B0B0E08093000290930102A0930202B093E1
S11316C0030208950F931F93CF93DF93CDB7DEB733
S11316D02E970FB6F894DEBF0FBECDBF0E891F89BB
S11316E086E08C831A8309838FEF9FE79E838D8323
S11316F0AE01465E5F4F688D798DCE01019610D0A4
S1131700EF81F885E00FF11F10822E960FB6F89442
S1131710DEBF0FBECDBFDF91CF911F910F91089512
S11317202F923F924F925F926F927F928F929F92ED
S1131730AF92BF92CF92DF92EF92FF920F931F93DB
S1131740CF93DF93CDB7DEB72B970FB6F894DEBFF8
S11317500FBECDBF6C017B018A01FC01178216828A
S1131760838181FFBFC1CE0101963C01F6019381C3
S1131770F70193FD859193FF81917F01882309F4FB
S1131780ADC1853239F493FD859193FF81917F0139
S1131790853221F4B60190E0D6D1E8CF912C212CEA
S11317A0312CFFE1F315D8F08B3279F038F4803224
S11317B079F08332A1F4232D20611DC08D3261F0B4
S11317C0803369F4232D216016C0832D8260382E66
S11317D0E32DE4603E2E2AC0F32DF8601DC037FCD3
S11317E02DC020ED280F2A3040F08E32B9F436FC9B
S11317F075C1232D2064322E19C036FE06C08AE03E
S1131800989E200D1124922E11C0EAE02E9E200DE8
S11318101124222EF32DF0623F2E08C08C3621F4C1
S1131820832D8068382E02C0883641F4F70193FD79
S1131830859193FF81917F018111B3CF982F9F7D73
S11318409554933028F40C5F1F4F9FE399830DC088
S1131850833631F0833771F0833509F055C020C0E9
S1131860F801808189830E5F1F4F88248394912C13
S1131870530112C02801F2E04F0E511CF801A08060
S1131880B18036FE03C0692D70E002C06FEF7FEFB8
S1131890C5014ED14C018201F32DFF773F2E15C0B7
S11318A0280122E0420E511CF801A080B18036FECE
S11318B003C0692D70E002C06FEF7FEFC5012DD129
S11318C04C01F32DF0683F2E820133FC19C0822DA8
S11318D090E088169906A0F4B60180E290E033D136
S11318E02A94F5CFF50137FC859137FE81915F018C
S11318F0B60190E028D121102A9421E0821A91089F
S11319008114910479F7E1C0843611F0893639F5F0
S1131910F80137FE07C060817181828193810C5F79
S11319201F4F08C060817181072E000C880B990B32
S11319300E5F1F4FF32DFF763F2E97FF09C0909542
S11319408095709561957F4F8F4F9F4FF0683F2E24
S11319502AE030E0A30133D1882E861844C08537AD
S113196031F4232D2F7EB22E2AE030E025C0932DB2
S1131970997FB92E8F36C1F018F4883579F0AEC04E
S1131980803719F0883721F0A9C0E92FE061BE2E15
S1131990B4FE0DC0FB2DF460BF2E09C034FE0AC096
S11319A0292F2660B22E06C028E030E005C020E1D1
S11319B030E002C020E132E0F801B7FE07C06081E8
S11319C07181828193810C5F1F4F06C06081718198
S11319D080E090E00E5F1F4FA301F1D0882E86189F
S11319E0FB2DFF773F2E36FE0DC0232D2E7FA22E1A
S11319F0891458F434FE0BC032FC09C0832D8E7E4A
S1131A00A82E05C0B82CA32C03C0B82C01C0B92C37
S1131A10A4FE0FC0FE01E80DF11D8081803321F486
S1131A209A2D997EA92E09C0A2FE06C0B394B39440
S1131A3004C08A2D867809F0B394A3FC10C0A0FEDC
S1131A4006C0B21480F4280C922C9B180DC0B2145A
S1131A5058F4B60180E290E076D0B394F8CFB21493
S1131A6018F42B1802C0982C212CA4FE0FC0B60128
S1131A7080E390E068D0A2FE16C0A1FC03C088E712
S1131A8090E002C088E590E0B6010CC08A2D86780B
S1131A9051F0A1FE02C08BE201C080E2A7FC8DE2FE
S1131AA0B60190E050D0891430F4B60180E390E0A0
S1131AB04AD09A94F8CF8A94F301E80DF11D8081FD
S1131AC0B60190E040D08110F6CF222009F44ECE2A
S1131AD0B60180E290E037D02A94F7CFF6018681F0
S1131AE0978102C08FEF9FEF2B960FB6F894DEBF5D
S1131AF00FBECDBFDF91CF911F910F91FF90EF905B
S1131B00DF90CF90BF90AF909F908F907F906F9019
S1131B105F904F903F902F900895FC010590615085
S1131B2070400110D8F7809590958E0F9F1F0895EF
S1131B30FC016150704001900110D8F78095909598
S1131B408E0F9F1F08950F931F93CF93DF93FB0175
S1131B50238121FD03C08FEF9FEF2CC022FF16C00D
S1131B6046815781248135814217530744F4A0816B
S1131B70B1819D012F5F3F4F318320838C93268158
S1131B8037812F5F3F4F3783268314C08B01EC01CD
S1131B90FB010084F185E02D1995892BE1F6D8012C
S1131BA016968D919C911797019617969C938E93F8
S1131BB01697CE01DF91CF911F910F910895FA01ED
S1131BC0AA27283051F1203181F1E8946F936E7F78
S1131BD06E5F7F4F8F4F9F4FAF4FB1E03ED0B4E069
S1131BE03CD0670F781F891F9A1FA11D680F791FAA
S1131BF08A1F911DA11D6A0F711D811D911DA11DBB
S1131C0020D009F468943F912AE0269F11243019CA
S1131C10305D3193DEF6CF010895462F4770405D65
S1131C204193B3E00FD0C9F7F6CF462F4F70405D14
S1131C304A3318F0495D31FD4052419302D0A9F76F
S1131C40EACFB4E0A6959795879577956795BA9569
S1131C50C9F700976105710508959B01AC010A2E2F
S1131C6006945795479537952795BA95C9F7620F06
S1131C70731F841F951FA01D0895052E97FB16F44E
S1131C8000940FD057FD05D092DC07FC02D046F437
S1131C9008C050954095309521953F4F4F4F5F4F69
S1131CA0089590958095709561957F4F8F4F9F4FC4
S1131CB008950FD0A59F900DB49F900DA49F800D03
S1131CC0911D11240895B7FFF4CFF3DF821B930B0A
S1131CD00895A29FB001B39FC001A39F700D811D01
S1131CE01124911DB29F700D811D1124911D089521
S1071CF0F894FFCF92
S1131CF4010000000005008908000810205F0000AE
S1131D0400000000000000000000000000000000CB
S1131D14000010101010101000100000000000004B
S1131D240000282828000000000000000000000033
S1131D34000028287C28507C50500000000000003B
S1131D4400103854503814145438100000000000A3
S1131D54000044A8A850141A2A240000000000001B
S1131D64000000000000000000000000000000006B
S1131D74000010101000000000000000000000002B
S1131D84000010202020202020202010000000002B
S1131D94000020101010101010101020000000007B
S1131DA400001038102800000000000000000000AB
S1131DB40000000010107C1010000000000000005F
S1131DC400000000000000000010102000000000CB
S1131DD400000000000000300000000000000000CB
S1131DE400000000000000000010000000000000DB
S1131DF40000080808101020202000000000000043
S1131E0400003048484848484830000000000000BA
S1131E1400001030501010101010000000000000DA
S1131E24000030480808102040780000000000003A
S1131E340000304808300808483000000000000062
S1131E44000008182828487C080800000000000046
S1131E5400003820407008084830000000000000EA
S1131E64000030484050684848300000000000003A
S1131E74000078081010102020200000000000004A
S1131E840000304848304848483000000000000052
S1131E94000030484858280848300000000000007A
S1131EA4000000001000000000100000000000000A
S1131EB400000000100000000010102000000000CA
S1131EC4000000000830403008000000000000005A
S1131ED4000000000078007800000000000000000A
S1131EE40000000040300830400000000000000002
S1131EF400003048081020200020000000000000EA
S1131F0400003844B64A4A4A4A3C82443800000035
S1131F140000102828282838444400000000000049
S1131F2400007844447844444478000000000000ED
S1131F340000384484808084443800000000000099
S1131F440000704844444444487000000000000009
S1131F5400007C40407C4040407C000000000000C5
S1131F6400003C2020382020202000000000000035
S1131F740000384484809C8444380000000000003D
S1131F8400004444447C44444444000000000000F1
S1131F9400001010101010101010000000000000B9
S1131FA40000080808080848483000000000000041
S1131FB400004448507050484844000000000000A9
S1131FC400004040404040404078000000000000D1
S1131FD4000082C6C6AAAAAAAA92000000000000B1
S1131FE4000084C4A4A494948C8400000000000021
S1131FF400003048848484844830000000000000D9
S1132004000078444444784040400000000000004C
S113201400003048848484845834040000000000A0
S11320240000784444785048444200000000000012
S113203400003844403804444438000000000000E0
S113204400007C101010101010100000000000009C
S113205400008484848484844830000000000000E8
S11320640000444428282828281000000000000008
S1132074000092AAAAAAAAAAAA4400000000000086
S11320840000422424181824244200000000000004
S11320940000442828101010101000000000000054
S11320A400007C0408101020407C000000000000A4
S11320B400003020202020202020203000000000B8
S11320C40000202010101010080800000000000078
S11320D40000301010101010101010300000000018
S11320E40000102828280000000000000000000060
S11320F4000000000000000000007C00000000005C
S11321040000201000000000000000000000000097
S1132114000000007008384848380000000000003F
S11321240000404050684848685000000000000027
S11321340000000030484040483000000000000027
S113214400000808285848485828000000000000E7
S113215400000000304878404830000000000000CF
S113216400001810381010101010000000000000B7
S1132174000000002858484858280870000000004F
S113218400004040506848484848000000000000EF
S113219400001000101010101010000000000000C7
S11321A40000100010101010101010300000000077
S11321B400004040485060504848000000000000BF
S11321C40000101010101010101000000000000087
S11321D400000000A6DA929292920000000000002F
S11321E4000000005068484848480000000000000F
S11321F40000000030484848483000000000000057
S11322040000000050684848685040400000000046
S11322140000000028584848582808080000000016
S113222400000000283020202020000000000000CE
S11322340000000070482010483000000000000036
S113224400001010381010101018000000000000D6
S113225400000000484848485828000000000000D6
S11322640000000044442828281000000000000056
S11322740000000092AAAAAAAA44000000000000D8
S1132284000000004428101028440000000000004E
S1132294000000004428282810101020000000002A
S11322A400000000780810204078000000000000BE
S11322B400003020202040202020201000000000B6
S11322C40000101010101010101010100000000066
S11322D4000030101010081010101030000000001E
S11322E400000000007458000000000000000A0010
S11322F4252E3466005B5278206563686F5D3A204E
S113230400544554524953002564008908790869E6
S11323140859084908390829080000010000010186
S113232400000001000000000000010000000100A2
S11323340000010100000000000000010000000191
S11323440000010100000000000000000000010181
S11323540000010100000000000001000000010170
S11323640000000100000000000000010000010161
S11323740000010000000000000000010000000152
S10D23840000000100000001000049
S9030000FC
