:1000000071C000008FC000008DC000008BC00000D8
:1000100089C0000087C0000085C0000083C00000C8
:1000200081C000007FC000007DC000007BC00000D8
:1000300079C0000077C0000075C0000073C00000E8
:1000400071C000006FC000006DC000006BC00000F8
:1000500069C0000067C0000065C0000084C00000E7
:1000600061C00000DCC500005DC000005BC0000096
:1000700059C0000057C0000055C0000053C0000028
:1000800051C000004FC000004DC000004BC0000038
:1000900049C0000047C0000045C0000043C0000048
:1000A00041C000003FC000003DC000003BC0000058
:1000B00039C0000037C0000035C0000033C0000068
:1000C00031C000002FC000002DC000002BC0000078
:1000D00029C0000027C0000025C0000023C0000088
:1000E00021C0000011241FBECFEFD1E2DEBFCDBF83
:1000F00000E00CBF18E0A0E0B2E0EAEFF0E200E0C0
:100100000BBF02C007900D92A63CB107D9F72BE0B8
:10011000A6ECB8E001C01D92AF36B207E1F7C1D539
:100120000C947B106DCF14BC83E085BD81E080937F
:100130006E0016BC0895F7CF0895279A94B590687D
:1001400094BD94B5936094BD853618F08FEF87BD4C
:1001500008952FEF829FC001112464E670E00E9491
:10016000C70C67BD08951F920F920FB60F9211240E
:100170002F933F938F939F93AF93BF938091040BE3
:100180009091050BA091060BB091070B3091030BDA
:1001900023E0230F2D3720F40196A11DB11D05C0CA
:1001A00026E8230F0296A11DB11D8093040B9093A6
:1001B000050BA093060BB093070B2093030B8091C4
:1001C000FF0A9091000BA091010BB091020B0196D8
:1001D000A11DB11D8093FF0A9093000BA093010B0A
:1001E000B093020BBF91AF919F918F913F912F914F
:1001F0000F900FBE0F901F90189580B3807E80BB2C
:1002000081B38F6181BB81E08093C60808958230FD
:1002100091F028F4882341F0813049F01AC08330EE
:1002200079F0843091F015C08FB1817008958FB14D
:100230008695817008958FB182FB882780F9089593
:100240008FB183FB882780F908958FB182958170E3
:10025000089582E008957F928F929F92AF92BF920D
:10026000CF92DF92EF92FF920F931F93CF93DF9382
:1002700000D01F921F92CDB7DEB7DD24D394CC24DB
:10028000C39447C08F2DC3DF811101C0E394015097
:100290001109C1F784E08E1560F41092C6088F2D05
:1002A00090E0FC01EC5FFD4F208121110CC08C2DF2
:1002B00010C0C092C608EF2DF0E0EC5FFD4FC08289
:1002C0002C2D8C2D06C0FC01EC5FFD4F108220E030
:1002D00080E092E0F91699F09F1530F0FF2059F078
:1002E00091E0F91651F011C093E0F91651F094E045
:1002F000F91649F00AC0782E0BC0882E09C0922E3C
:1003000007C0A82E05C0B82E0BC084E08D1540F0A4
:10031000D394FF24FA94FD0C05E010E0E12CB2CF59
:10032000272D382D492D5A2D6B2D70E080E090E05F
:100330000F900F900F900F900F90DF91CF911F9122
:100340000F91FF90EF90DF90CF90BF90AF909F9074
:100350008F907F9008952898759A45D4289A08958B
:100360002898759840D4289A089574982FEF81EEB4
:1003700094E0215080409040E1F700C00000749A62
:100380002FEF80E792E0215080409040E1F700C0DD
:1003900000000895AF92BF92CF92DF92EF92FF924A
:1003A0000F931F93CF93DF93B82EA92EF62EE72E2F
:1003B000D42EC52E122F032FC8E0DBE08985D0DFB5
:1003C0008A2DC9DF8B2DC7DF8C2DC5DF8D2DC3DFB7
:1003D0008B85C6DF8E2DBFDF8F2DBDDF802FBBDF6E
:1003E000812FB9DF8F81BCDFDF91CF911F910F91FA
:1003F000FF90EF90DF90CF90BF90AF9008959B015A
:10040000AC01C8CF0895E8E0FBE02AE230E0328793
:1004100021872BE230E0348723872CE230E03087DD
:1004200027838130A9F028F0823009F1833071F1FF
:100430000895E8E0FBE080E491E09183808380EE22
:1004400091E09383828386E38BDF88E484CF0895F1
:10045000E8E0FBE080EE91E09183808380E491E02E
:100460009383828386E37CDF88E275CF0895E8E09A
:10047000FBE080E491E09183808380EE91E09383C0
:10048000828386E36DDF88E866CF0895E8E0FBE0CD
:1004900080EE91E09183808380E491E09383828376
:1004A00086E35EDF88EE57CF089547CE0895CF9359
:1004B000C82F2898759A892F96D38C2F94D3289A71
:1004C000CF910895CF92DF92EF92FF920F931F93F7
:1004D000CF93DF937C01C8E0DBE02A813B81215090
:1004E0003109488159814150510960E070E080E054
:1004F00090E050DF2898759A8A819B81892BB1F40E
:100500001FC0C0E0D0E0C701D2DF2196F801808192
:100510009181C817D907B8F3FFEFCF1ADF0AF801A6
:1005200082819381C816D90628F00AC0C12CD12C2B
:1005300008E01BE0F80180819181892B11F7ECCF55
:10054000289ADF91CF911F910F91FF90EF90DF904C
:10055000CF90089520D38DB180638DB9ECDD05DF98
:1005600080EFFEDE83ECF7DE80EFFADE86E9F3DE75
:1005700086E3F6DE88E6EFDE8AE3F2DE85E0EBDE98
:1005800080EBEEDE80E8E7DE86EBEADE80E0E3DEAD
:1005900082E0E1DE85EBE4DE82E0DDDE83E0DBDECF
:1005A00080E0D9DE84E0D7DE81EBDADE80E8D3DEDE
:1005B00080E1D1DE84EBD4DE80E0CDDE87EBD0DEDF
:1005C00086ECC9DE85ECCCDE84E2C5DE84EEC8DED6
:1005D00081E3C1DE88EEC4DE80E4BDDE8AE8BBDEF6
:1005E00080E0B9DE80E0B7DE89E2B5DE89E1B3DE26
:1005F00085EAB1DE83E3AFDE82ECB2DE87EAB0DE0D
:1006000080EEAEDE80EFA7DE89E0A5DE83E1A3DE2B
:1006100082E1A1DE82E19FDE8BE29DDE8CE39BDE48
:1006200084E499DE8BE497DE8BE195DE88E193DE4E
:1006300087E191DE8DE18FDE81E28DDE81EE90DE5D
:1006400080EF89DE89E087DE83E185DE8CE083DE72
:100650008DE081DE87E27FDE8BE37DDE84E47BDE7E
:100660008DE479DE8BE077DE87E175DE87E173DE8E
:100670008DE171DE81E26FDE86E372DE8CEE6BDE91
:1006800080EF6EDE83EC67DE80EF6ADE89E663DE94
:1006900083E166DE81E164DE89E262DE80E0B3DE72
:1006A00084E64BDD80E090E00DCF0895CF93DF939B
:1006B000EA01A5DECE01FBDEDF91CF910895AF9276
:1006C000BF92CF92DF92EF92FF920F931F93CF933F
:1006D000DF934817590728F4F82FE92FCA014F2F45
:1006E0005E2F2617370728F4F62FE72FB9012F2F93
:1006F0003E2F7A01EFEFEE1AFE0AE81AF90A5901C5
:10070000EFEFAE1ABE0AA61AB70A44DEA114B1046E
:1007100081F415C0C0E0D0E0C801C9DE2196EC1616
:10072000FD06D1F78FEFC81AD80AAC14BD0419F42E
:1007300006C0C12CD12CE114F10461F7F3CFDF9195
:10074000CF911F910F91FF90EF90DF90CF90BF90CE
:10075000AF9008952F923F924F925F926F927F9247
:100760008F929F92AF92BF92CF92DF92EF92FF92C1
:100770000F931F93CF93DF93CDB7DEB728970FB6B4
:10078000F894DEBF0FBECDBF1A8309836A01C81A71
:10079000D90A3901661A770A1C012B011C141D04A1
:1007A0005CF0C114D10469F0D194C194D1088FEFE9
:1007B0009FEF9C838B8307C081E090E09C838B83B9
:1007C00002C01C821B82161417045CF061147104B1
:1007D00069F07194619471088FEF9FEF9E838D8310
:1007E00007C081E090E09E838D8302C01E821D823F
:1007F0007601C614D7040CF4730157019FEFA91AB0
:10080000B90A00E010E018861F82812C912C4981E2
:100810005A81B201C1014ADF8F8198858C0D9D1DDF
:1008200098878F83060D171DE816F90644F48E1974
:100830009F0998878F838B819C81280E391EE01633
:10084000F10634F40E191F098D819E81480E591E40
:100850009FEF891A990AA814B904C8F628960FB60A
:10086000F894DEBF0FBECDBFDF91CF911F910F91E6
:10087000FF90EF90DF90CF90BF90AF909F908F90C0
:100880007F906F905F904F903F902F9008958F9240
:100890009F92AF92BF92CF92DF92EF92FF920F930F
:1008A0001F93CF93DF934C017B01EA0169019B0108
:1008B00051DF9601A401B701C4014CDF9601AE01DE
:1008C000B601C40147DF9601AE01B701CE0142DF98
:1008D000DF91CF911F910F91FF90EF90DF90CF901C
:1008E000BF90AF909F908F9008950F931F93E7DE76
:1008F0001F910F9108953F924F925F926F927F9256
:100900008F929F92AF92BF92CF92DF92EF92FF921F
:100910000F931F93CF93DF936A01590100526E2CFE
:10092000712C2301440C551C440C551C440C551CC3
:10093000440C551C660C771C660C771C660C771CE7
:100940009B0121503109240D351DAC014150510945
:10095000460D571D1FDD14141504BCF520E1029F40
:10096000C0011124312C9C01275E3D4F490107E055
:1009700010E0832D6E2DFFD7F401E80FF11DC58126
:1009800016141704E4F4F12CD0E08F2D6E2DF3D75C
:100990009801281B3109C9019E0102C03595279590
:1009A0008A95E2F720FF03C0C60181DD02C0C501C0
:1009B0007EDDF3948F2D90E08615970534F3339404
:1009C000832D90E084159505A4F2DF91CF911F91BE
:1009D0000F91FF90EF90DF90CF90BF90AF909F90DE
:1009E0008F907F906F905F904F903F9008952F92DF
:1009F0003F924F925F926F927F928F929F92AF92AF
:100A0000BF92CF92DF92EF92FF920F931F93CF93FB
:100A1000DF9300D01F92CDB7DEB79C838B834B0151
:100A2000D42E1A83098317011C2DF901008180EE51
:100A3000800F8F3508F04BC08091080B9091090B07
:100A400001974B815C818417950708F440C0809121
:100A50000A0B90910B0B019786179707C0F14D2C4D
:100A6000512C440C551C440C551C440C551C59016C
:100A70005FEFA51AB50A0F2EF8E06F2EFBE07F2E70
:100A8000F02D0FC0F3018081918101972B813C8172
:100A900082179307E0F08281938101978815990569
:100AA000B0F0C12EED2C910149815A81B4018B81A6
:100AB0009C8121DF4B815C81440D551D5C834B8300
:100AC000F50101915F0180EE800F8F35D8F20F9014
:100AD0000F900F900F90DF91CF911F910F91FF908A
:100AE000EF90DF90CF90BF90AF909F908F907F90CE
:100AF0006F905F904F903F902F9008954F925F922C
:100B00006F927F928F929F92AF92BF92CF92DF921D
:100B1000EF92FF920F931F93CF93DF93CDB7DEB782
:100B20002F970FB6F894DEBF0FBECDBF4C012B013F
:100B3000D42E3901FF92EF9286E192E09F938F933A
:100B4000CE0101965C019F938F93BFD7C12C780192
:100B5000830195014D2DB201C40149DF0F900F9023
:100B60000F900F900F900F902F960FB6F894DEBF56
:100B70000FBECDBFDF91CF911F910F91FF90EF90EE
:100B8000DF90CF90BF90AF909F908F907F906F90AD
:100B90005F904F9008958091C7089091C808892B65
:100BA00009F584B1876084B98CB580618CBD8CB542
:100BB0008F7D8CBD8CB5877F8CBD8CB58B7F8CBDBC
:100BC0008CB58D7F8CBD8CB58E7F8CBD8DB58160D5
:100BD0008DBD8CB580648CBD81E090E09093C80899
:100BE0008093C70808958EBD0DB407FEFDCF8EB566
:100BF0000895CF93DF93FC012081222369F0DC016B
:100C00001196E0ECF0E0C6ECD0E0908195FFFDCFCE
:100C100028832D912111F9CFDF91CF9108951F9253
:100C20000F920FB60F9211240BB60F922F933F9392
:100C30004F935F936F937F938F939F93AF93BF93E4
:100C4000EF93FF938091C600E091C90891E09E0F59
:100C50009093C908F0E0E35CF44F80838A3071F42C
:100C6000E091C908F0E0E35CF44F108285E198E080
:100C7000C0DF8DE39BE0BDDF1092C908FF91EF91CB
:100C8000BF91AF919F918F917F916F915F914F91A4
:100C90003F912F910F900BBE0F900FBE0F901F90A2
:100CA0001895CF93DF9300D01F921F92CDB7DEB778
:100CB00051DC84E1FADB81E0A6DB9FDAF6D0C12CBF
:100CC000D12CE12CF12C00EE1FEF21E238E044E0C2
:100CD00050E06AE070E08EE091E089DE0FEF1FEFF8
:100CE00023EA30E04CE751E06AE570E080E491E00F
:100CF000CEDD00EE1FEF28E238E042E050E068EC85
:100D000070E08AEF90E073DEC4D27C0100E010E076
:100D10002FEF3FEF42E050E068EC70E084E591E0B7
:100D2000EDDEE2D00F2EF6E1AF2EF2E0BF2EF02D79
:100D30000F2EF5E6CF2EFBE0DF2EF02DAAD29F93EB
:100D40008F93BF92AF92DF92CF92BFD684DA3A836D
:100D50004B835C836D830F900F900F900F900F90DB
:100D60000F90211108C080E0A8D1882321F080E0F5
:100D700090E0E1D244D18B8181111CC082E09DD1F1
:100D8000882329F080E090E0D6D24BD113C0EDD378
:100D900088D47FD27C0100E010E02FEF3FEF42E0EB
:100DA00050E068EC70E084E591E0A8DE9DD0892BEE
:100DB00009F4A2D58C81811108C081E07ED18823FD
:100DC00021F080E090E0B7D23ED18A81811108C045
:100DD00083E073D1882321F080E090E0ACD245D14C
:100DE0008D81811107C0F0D1882321F080E090E04F
:100DF000A2D24DD180EE97E09ED24FE150E064E662
:100E000070E080E491E035D399CF4370413059F0E0
:100E100028F0423071F0433091F016C0660F660F33
:100E2000962F980F11C0645F880F880F962F981B1C
:100E30000BC09FE0981B660F660F961B05C0880FBE
:100E4000880F8D5F982F961B892F0895CF93DF937E
:100E5000CDB7DEB728970FB6F894DEBF0FBECDBF73
:100E60009FE0969FB0011124989FC00111249B011F
:100E7000245F3F4F3A832983AC01465F5F4F5C8319
:100E80004B83675E7F4F7E836D83479698878F8302
:100E90003A815C817E81988528960FB6F894DEBFF2
:100EA0000FBECDBFDF91CF9108950F931F930FEF2A
:100EB0001FEF26E331E04EED50E068E070E08AE09D
:100EC00090E0E5DC28E331E040EE50E066E070E0E1
:100ED00088E090E0DCDC1F910F910895EEE0F2E0F5
:100EE000108285E0818308959F92AF92BF92CF9246
:100EF000DF92EF92FF920F931F93CF93DF93809136
:100F00001302811108C08091CD089091CE08909372
:100F1000150280931402CBD567E070E038D5FC0150
:100F2000FF27EE0FFF1FE85CF74F808191819093C0
:100F3000CE088093CD08BBD587709078992324F490
:100F40000197886F9F6F0196FC01FF27EE0FFF1F2F
:100F5000EA5BF74F80819181909312028093110296
:100F6000BDDFEEE0F2E0B280E0901402F0901502F6
:100F70008081C1800C2C000CDD082EE08202C00CA8
:100F8000D11C1124C601880F991FFC01E153F74FB2
:100F90006F01D0E0912CA12C1CC04B2D6D2F8C2FFC
:100FA00034DFF701E80FF11D8081882339F0F80163
:100FB00080819181892B11F0E92CFA2CCF5F0E5F93
:100FC0001F4FC43051F7DF5FFCE1CF0ED11CD4308E
:100FD00019F08601C0E0E1CFF0921502E092140210
:100FE00010921302C701DF91CF911F910F91FF90D3
:100FF000EF90DF90CF90BF90AF909F90089581E0E9
:101000008093CA0885E0EEE0F2E0A9E0B2E001904A
:101010000D928A95E1F7EEE0F2E0808181508083C5
:10102000089583E08093CA0885E0EEE0F2E0A9E04D
:10103000B2E001900D928A95E1F7EEE0F2E0808156
:101040008F5F8083089584E08093CA0885E0EEE096
:10105000F2E0A9E0B2E001900D928A95E1F7EEE0AE
:10106000F2E081818F5F8183089582E08093CA08D6
:1010700085E0EEE0F2E0A9E0B2E001900D928A9501
:10108000E1F7EEE0F2E0818181508183089585E00F
:101090008093CA08EEE0F2E0A9E0B2E001900D9280
:1010A0008A95E1F7809110028F5F843018F4809365
:1010B000100208951092100208956F927F928F92FD
:1010C0009F92AF92BF92CF92DF92EF92FF920F93D7
:1010D0001F93CF93DF93EEE0F2E0A0806180813038
:1010E00041F028F0823039F0833039F007C0AA94FB
:1010F00005C0639403C0A39401C06A948090140255
:1011000090901502709010020A2C000CBB08C501CB
:10111000880F991F6C01CC0CDD1CCC0CDD1CCC0C99
:10112000DD1CC81AD90AC60CD11C67FCDA94C601AA
:10113000880F991F9C012153374F6901D0E027C0C8
:10114000472D6D2F8C2F61DEF401E80FF11D80819A
:10115000882361F00E30110508F534E1A316B104BF
:10116000F8F4F70180819181892BE1F4CF5FF2E0FF
:10117000EF0EF11C0F5F1F4FC43011F7DF5F2CE142
:10118000C20ED11C3FEFA31AB30AD43069F0062D6A
:10119000062C000C110B7601C0E0D2CF80E005C018
:1011A00080E003C080E001C081E0DF91CF911F911A
:1011B0000F91FF90EF90DF90CF90BF90AF909F90F6
:1011C0008F907F906F900895AF92BF92CF92DF92F1
:1011D000EF92FF920F931F93CF93DF93EEE0F2E035
:1011E000E080A1808281BB24B394B80E843058F192
:1011F0001092100228C04B2D6D2F8C2F06DEF601A9
:10120000E80FF11D8081882339F00E301105A8F414
:1012100084E1E816F10498F4CF5F0F5F1F4FC430EC
:1012200051F7DF5F8FEFE81AF80AD43051F00A2D3A
:101230000A2C000C110BC0E0DECF80E00DC080E076
:101240000BC081E009C0C0901402D09015020E2C92
:10125000000CFF08D0E0EBCFDF91CF911F910F91F1
:10126000FF90EF90DF90CF90BF90AF900895EFEC9C
:10127000F8E02FEF3AE009C0119211928E179F0704
:10128000D9F7FC018217930719F0CF014C96F4CFE0
:1012900008958091CB089091CC0808958F929F92E9
:1012A000AF92BF92CF92DF92EF92FF920F931F9374
:1012B000CF93DF93CDB7DEB728970FB6F894DEBF94
:1012C0000FBECDBF29833A834B835C836D837E83BE
:1012D0008F839887C980DA80EF80F88456018FEF7A
:1012E000A81AB80A9701225031094D815E814150F8
:1012F00051096B817C816F5F7F4FC501F6DAB701C1
:1013000061507109A6014E5F5F4F9B01C50122DA52
:1013100028960FB6F894DEBF0FBECDBFDF91CF91F8
:101320001F910F91FF90EF90DF90CF90BF90AF9003
:101330009F908F9008953F924F925F926F927F920D
:101340008F929F92AF92BF92CF92DF92EF92FF92D5
:101350000F931F93CF93DF93CDB7DEB728970FB6C8
:10136000F894DEBF0FBECDBFEEE0F2E07080B1803A
:10137000812C912C6F01412C312C582E692E5DC08F
:101380000091140210911502F60142816A2D8E2DF2
:101390003CDDF801E80FF11D8081882319F0052D4F
:1013A000162D02C0042D132DF60181819701280FFF
:1013B000311D87FD3A95C9012E30310558F5208140
:1013C000A401420F511D27FD5A959A014431510540
:1013D00008F5220F331FF901EE0FFF1FEE0FFF1F5D
:1013E000EE0FFF1FE21BF30BE80FF91FEE0FFF1FBD
:1013F000E153F74F80819181892B61F46B2D872D0B
:1014000025DD29833A834B835C836D837E838F83C1
:10141000988744DFB3945FEFE51AF50A84E0E81695
:10142000F10409F0ADCFF601B1807394FFEF8F1A8C
:101430009F0A24E08216910421F0A82CE12CF12CC3
:101440009FCF28960FB6F894DEBF0FBECDBFDF91B9
:10145000CF911F910F91FF90EF90DF90CF90BF90B1
:10146000AF909F908F907F906F905F904F903F9044
:1014700008952F923F924F925F926F927F928F9238
:101480009F92AF92BF92CF92DF92EF92FF920F9313
:101490001F93CF93DF93CDB7DEB728970FB6F8949D
:1014A000DEBF0FBECDBF4C016B018FEFC81AD80A4B
:1014B000612C412C512C342E252E34C00091CD08A6
:1014C0001091CE0840E0662D872D9FDCF801E80FD3
:1014D000F11D8081882319F0032D122D02C0042DE7
:1014E000152D2E2DFA82E9824C2DDC82CB82C7018C
:1014F0000D96682F9E838D83B886AF823A815C817A
:101500007E818A2D9885CADE73948FE0E80EF11CE7
:1015100084E07812D3CF63948FE0C80ED11C84E0AE
:10152000681651F056018DE0A80EB11C74018FEFC2
:10153000E81AF80A712CC2CF28960FB6F894DEBFCD
:101540000FBECDBFDF91CF911F910F91FF90EF9014
:10155000DF90CF90BF90AF909F908F907F906F90D3
:101560005F904F903F902F9008952F923F924F920F
:101570005F926F927F928F929F92AF92BF92CF9223
:10158000DF92EF92FF920F931F93CF93DF93CDB72C
:10159000DEB72A970FB6F894DEBF0FBECDBFC12CC1
:1015A000D12C0F2EFEE0AF2EF2E0BF2EF02D5CC04E
:1015B000F50150808601050D111D57FC1A95043167
:1015C00011050CF042C03180632C032C000C77080D
:1015D000FA86E986C3018E0D9F1D0E97B0F58090A7
:1015E0001402909015024281622D8E2D0EDCF401C2
:1015F000E80FF11D8081882341F1000F111FC80100
:10160000880F991F880F991F880F991F801B910BB6
:10161000680E791E6E0C7F1CF301EE0FFF1FE15365
:10162000F74F81E090E091838083632D6E0D852DCF
:10163000820D0CDC29833A834B835C836D837E832C
:101640008F83988700E018EF29DE9FEFE91AF90AE7
:10165000E4E0EE16F10409F0ABCFFFEFCF1ADF0A9A
:1016600084E0C816D10421F02C2CE12CF12CA0CF61
:101670002A960FB6F894DEBF0FBECDBFDF91CF9193
:101680001F910F91FF90EF90DF90CF90BF90AF90A0
:101690009F908F907F906F905F904F903F902F9092
:1016A00008952F923F924F925F926F927F928F9206
:1016B0009F92AF92BF92CF92DF92EF92FF920F93E1
:1016C0001F93CF93DF93CDB7DEB728970FB6F8946B
:1016D000DEBF0FBECDBF0F2EFFECEF2EF8E0FF2ECA
:1016E000F02D312C212CA8C081919191892B09F0EA
:1016F0002F5FE615F705C1F7A6C0D12C6D2D832D00
:10170000A5DB29833A834B835C836D837E838F8340
:1017100098872F8138854D815E816B817C8100E0C7
:1017200010E089819A81E1D8F701119211927F012D
:10173000D394FEE0DF12E2CFA12CB12C65C0532C74
:101740004501852D90E00197880F991F7C01EE0CD3
:10175000FF1CEE0CFF1CEE0CFF1CE81AF90A6701D7
:10176000CA0CDB1CF601EE0FFF1FE153F74F10818F
:10177000642D852D6BDB29833A834B835C836D83DA
:101780007E838F839887112379F0F601EE0FFF1F78
:10179000E551F74F80819181892BE1F400E018EF4A
:1017A0008F8198857BDD16C0F701EA0DFB1DEE0FDA
:1017B000FF1FE551F74F80819181892B59F02F81CF
:1017C00038854D815E816B817C8100E010E08981EC
:1017D0009A818BD8F601EE0FFF1FE153F74F8081FE
:1017E0009181F701E80DF91DEE0FFF1FE551F74F4D
:1017F000918380835A945110A4CF2FEFA21AB20A7A
:101800008EE0A816B10421F04A2C311098CFF5CF04
:1018100023948091CB089091CC08E4E6E29D800D62
:10182000911D11249093CC088093CB0857DB3394FF
:101830007301F4E13F1651F037012CE1620E711C87
:10184000F70120E051CF2E3089F757CF28960FB6F9
:10185000F894DEBF0FBECDBFDF91CF911F910F91E6
:10186000FF90EF90DF90CF90BF90AF909F908F90C0
:101870007F906F905F904F903F902F900895AF9220
:10188000BF92CF92DF92EF92FF920F931F93CF936D
:10189000DF935C010F2EFAE0EF2EF12CF02D1AC031
:1018A000AE01435F5F4F85019601B701CE011DD8A0
:1018B0008FE39CE90197F1F700C000002F96CE3D21
:1018C000D10571F79FE0E90EF11C86E3E81681E08F
:1018D000F80639F067019DE0C90ED11CCCE0D0E0DC
:1018E000DFCFDF91CF911F910F91FF90EF90DF90AD
:1018F000CF90BF90AF900895CF92EF92FF920F9349
:101900001F93C12CE12CF12C0FEF1FEF2EE238E0DA
:1019100044E064E670E08CE390E069D823E338E0CB
:1019200044E066E970E08CE390E061D82FEF83ED4E
:1019300090E3215080409040E1F700C000008FEF1D
:101940009FEF9DDF94DC00E010E024E331E04DEDFB
:1019500050E069E070E08BE090E00E947504BEDA30
:101960001092CC081092CB08BFDA1F910F91FF9014
:10197000EF90CF900895991B79E004C0991F9617B6
:1019800008F0961B881F7A95C9F78095089597FBF4
:10199000072E16F4009406D077FD08D02DD007FC52
:1019A00005D03EF4909581959F4F0895709561956F
:1019B0007F4F0895A1E21A2EAA1BBB1BFD010DC08B
:1019C000AA1FBB1FEE1FFF1FA217B307E407F507EF
:1019D00020F0A21BB30BE40BF50B661F771F881FCB
:1019E000991F1A9469F760957095809590959B0161
:1019F000AC01BD01CF010895AA1BBB1B51E107C07B
:101A0000AA1FBB1FA617B70710F0A61BB70B881F8E
:101A1000991F5A95A9F780959095BC01CD0108951D
:101A20008F929F92AF92BF92CF92DF92EF92FF92EE
:101A3000CF93DF93EC01688179818A819B81611565
:101A400071058105910521F464E279ED8BE597E05C
:101A50002DE133EF41E050E013D349015A019B01DE
:101A6000AC01A7EAB1E428D36B017C01ACEEB4EF82
:101A7000A50194012DD3DC01CB018C0D9D1DAE1D64
:101A8000BF1DB7FF03C00197A109B04888839983A0
:101A9000AA83BB839F77DF91CF91FF90EF90DF9078
:101AA000CF90BF90AF909F908F900895B9CF80E076
:101AB00092E0B6CFA0E0B0E08093000290930102E4
:101AC000A0930202B093030208950F931F93CF9344
:101AD000DF93CDB7DEB72E970FB6F894DEBF0FBEFB
:101AE000CDBF0E891F8986E08C831A8309838FEF0F
:101AF0009FE79E838D83AE01465E5F4F688D798D33
:101B0000CE01019610D0EF81F885E00FF11F108211
:101B10002E960FB6F894DEBF0FBECDBFDF91CF91EA
:101B20001F910F9108952F923F924F925F926F9263
:101B30007F928F929F92AF92BF92CF92DF92EF925D
:101B4000FF920F931F93CF93DF93CDB7DEB72B9701
:101B50000FB6F894DEBF0FBECDBF6C017B018A01CA
:101B6000FC0117821682838181FFBFC1CE010196DD
:101B70003C01F6019381F70193FD859193FF8191DB
:101B80007F01882309F4ADC1853239F493FD859135
:101B900093FF81917F01853221F4B60190E0D6D187
:101BA000E8CF912C212C312CFFE1F315D8F08B32AA
:101BB00079F038F4803279F08332A1F4232D20615A
:101BC0001DC08D3261F0803369F4232D216016C071
:101BD000832D8260382EE32DE4603E2E2AC0F32D43
:101BE000F8601DC037FC2DC020ED280F2A3040F0D2
:101BF0008E32B9F436FC75C1232D2064322E19C003
:101C000036FE06C08AE0989E200D1124922E11C047
:101C1000EAE02E9E200D1124222EF32DF0623F2E9D
:101C200008C08C3621F4832D8068382E02C0883697
:101C300041F4F70193FD859193FF81917F0181111B
:101C4000B3CF982F9F7D9554933028F40C5F1F4F8E
:101C50009FE399830DC0833631F0833771F083356C
:101C600009F055C020C0F801808189830E5F1F4FA5
:101C700088248394912C530112C02801F2E04F0E66
:101C8000511CF801A080B18036FE03C0692D70E0C0
:101C900002C06FEF7FEFC5014ED14C018201F32DE1
:101CA000FF773F2E15C0280122E0420E511CF8019B
:101CB000A080B18036FE03C0692D70E002C06FEFD6
:101CC0007FEFC5012DD14C01F32DF0683F2E82012D
:101CD00033FC19C0822D90E088169906A0F4B60155
:101CE00080E290E033D12A94F5CFF50137FC85915D
:101CF00037FE81915F01B60190E028D121102A942E
:101D000021E0821A91088114910479F7E1C08436A8
:101D100011F0893639F5F80137FE07C0608171810D
:101D2000828193810C5F1F4F08C060817181072EF3
:101D3000000C880B990B0E5F1F4FF32DFF763F2E83
:101D400097FF09C090958095709561957F4F8F4F53
:101D50009F4FF0683F2E2AE030E0A30133D1882E58
:101D6000861844C0853731F4232D2F7EB22E2AE009
:101D700030E025C0932D997FB92E8F36C1F018F42D
:101D8000883579F0AEC0803719F0883721F0A9C0C6
:101D9000E92FE061BE2EB4FE0DC0FB2DF460BF2E16
:101DA00009C034FE0AC0292F2660B22E06C028E0E2
:101DB00030E005C020E130E002C020E132E0F8016F
:101DC000B7FE07C060817181828193810C5F1F4FD4
:101DD00006C06081718180E090E00E5F1F4FA3011B
:101DE000F1D0882E8618FB2DFF773F2E36FE0DC0D2
:101DF000232D2E7FA22E891458F434FE0BC032FC02
:101E000009C0832D8E7EA82E05C0B82CA32C03C03C
:101E1000B82C01C0B92CA4FE0FC0FE01E80DF11DC5
:101E20008081803321F49A2D997EA92E09C0A2FECB
:101E300006C0B394B39404C08A2D867809F0B39495
:101E4000A3FC10C0A0FE06C0B21480F4280C922C93
:101E50009B180DC0B21458F4B60180E290E076D021
:101E6000B394F8CFB21418F42B1802C0982C212C7C
:101E7000A4FE0FC0B60180E390E068D0A2FE16C0B9
:101E8000A1FC03C088E790E002C088E590E0B601BD
:101E90000CC08A2D867851F0A1FE02C08BE201C0F1
:101EA00080E2A7FC8DE2B60190E050D0891430F4B6
:101EB000B60180E390E04AD09A94F8CF8A94F30177
:101EC000E80DF11D8081B60190E040D08110F6CF81
:101ED000222009F44ECEB60180E290E037D02A9459
:101EE000F7CFF6018681978102C08FEF9FEF2B9687
:101EF0000FB6F894DEBF0FBECDBFDF91CF911F911B
:101F00000F91FF90EF90DF90CF90BF90AF909F9098
:101F10008F907F906F905F904F903F902F9008959B
:101F2000FC010590615070400110D8F780959095A4
:101F30008E0F9F1F0895FC016150704001900110A9
:101F4000D8F7809590958E0F9F1F08950F931F933C
:101F5000CF93DF93FB01238121FD03C08FEF9FEF20
:101F60002CC022FF16C0468157812481358142173B
:101F7000530744F4A081B1819D012F5F3F4F31830E
:101F800020838C93268137812F5F3F4F37832683B1
:101F900014C08B01EC01FB010084F185E02D199543
:101FA000892BE1F6D80116968D919C911797019691
:101FB00017969C938E931697CE01DF91CF911F9128
:101FC0000F910895FA01AA27283051F1203181F1AB
:101FD000E8946F936E7F6E5F7F4F8F4F9F4FAF4F31
:101FE000B1E03ED0B4E03CD0670F781F891F9A1F44
:101FF000A11D680F791F8A1F911DA11D6A0F711DF8
:10200000811D911DA11D20D009F468943F912AE003
:10201000269F11243019305D3193DEF6CF010895EB
:10202000462F4770405D4193B3E00FD0C9F7F6CF1C
:10203000462F4F70405D4A3318F0495D31FD4052E4
:10204000419302D0A9F7EACFB4E0A695979587957A
:1020500077956795BA95C9F7009761057105089559
:102060009B01AC010A2E0694579547953795279505
:10207000BA95C9F7620F731F841F951FA01D08959D
:10208000052E97FB16F400940FD057FD05D092DC77
:1020900007FC02D046F408C0509540953095219534
:1020A0003F4F4F4F5F4F0895909580957095619584
:1020B0007F4F8F4F9F4F08950FD0A59F900DB49FD6
:1020C000900DA49F800D911D11240895B7FFF4CFAA
:1020D000F3DF821B930B0895A29FB001B39FC00151
:1020E000A39F700D811D1124911DB29F700D811D44
:0A20F0001124911D0895F894FFCF0C
:1020FA0001000000010101010100050000F80005CE
:10210A000000F801B608256400000810205F0000EE
:10211A0000000000000000000000000000000000B5
:10212A000000101010101010001000000000000035
:10213A00000028282800000000000000000000001D
:10214A00000028287C28507C505000000000000025
:10215A00001038545038141454381000000000008D
:10216A00000044A8A850141A2A2400000000000005
:10217A000000000000000000000000000000000055
:10218A000000101010000000000000000000000015
:10219A000000102020202020202020100000000015
:1021AA000000201010101010101010200000000065
:1021BA000000103810280000000000000000000095
:1021CA000000000010107C10100000000000000049
:1021DA0000000000000000000010102000000000B5
:1021EA0000000000000000300000000000000000B5
:1021FA0000000000000000000010000000000000C5
:10220A00000008080810102020200000000000002C
:10221A0000003048484848484830000000000000A4
:10222A0000001030501010101010000000000000C4
:10223A000000304808081020407800000000000024
:10224A00000030480830080848300000000000004C
:10225A00000008182828487C080800000000000030
:10226A0000003820407008084830000000000000D4
:10227A000000304840506848483000000000000024
:10228A000000780810101020202000000000000034
:10229A00000030484830484848300000000000003C
:1022AA000000304848582808483000000000000064
:1022BA0000000000100000000010000000000000F4
:1022CA0000000000100000000010102000000000B4
:1022DA000000000008304030080000000000000044
:1022EA0000000000007800780000000000000000F4
:1022FA0000000000403008304000000000000000EC
:10230A0000003048081020200020000000000000D3
:10231A0000003844B64A4A4A4A3C8244380000001F
:10232A000000102828282838444400000000000033
:10233A0000007844447844444478000000000000D7
:10234A000000384484808084443800000000000083
:10235A0000007048444444444870000000000000F3
:10236A0000007C40407C4040407C000000000000AF
:10237A0000003C202038202020200000000000001F
:10238A000000384484809C84443800000000000027
:10239A0000004444447C44444444000000000000DB
:1023AA0000001010101010101010000000000000A3
:1023BA00000008080808084848300000000000002B
:1023CA000000444850705048484400000000000093
:1023DA0000004040404040404078000000000000BB
:1023EA00000082C6C6AAAAAAAA920000000000009B
:1023FA00000084C4A4A494948C840000000000000B
:10240A0000003048848484844830000000000000C2
:10241A000000784444447840404000000000000036
:10242A00000030488484848458340400000000008A
:10243A0000007844447850484442000000000000FC
:10244A0000003844403804444438000000000000CA
:10245A0000007C1010101010101000000000000086
:10246A0000008484848484844830000000000000D2
:10247A0000004444282828282810000000000000F2
:10248A00000092AAAAAAAAAAAA4400000000000070
:10249A0000004224241818242442000000000000EE
:1024AA00000044282810101010100000000000003E
:1024BA0000007C0408101020407C0000000000008E
:1024CA0000003020202020202020203000000000A2
:1024DA000000202010101010080800000000000062
:1024EA000000301010101010101010300000000002
:1024FA00000010282828000000000000000000004A
:10250A00000000000000000000007C000000000045
:10251A000000201000000000000000000000000081
:10252A000000000070083848483800000000000029
:10253A000000404050684848685000000000000011
:10254A000000000030484040483000000000000011
:10255A0000000808285848485828000000000000D1
:10256A0000000000304878404830000000000000B9
:10257A0000001810381010101010000000000000A1
:10258A000000000028584848582808700000000039
:10259A0000004040506848484848000000000000D9
:1025AA0000001000101010101010000000000000B1
:1025BA000000100010101010101010300000000061
:1025CA0000004040485060504848000000000000A9
:1025DA000000101010101010101000000000000071
:1025EA0000000000A6DA9292929200000000000019
:1025FA0000000000506848484848000000000000F9
:10260A000000000030484848483000000000000040
:10261A000000000050684848685040400000000030
:10262A000000000028584848582808080000000000
:10263A0000000000283020202020000000000000B8
:10264A000000000070482010483000000000000020
:10265A0000001010381010101018000000000000C0
:10266A0000000000484848485828000000000000C0
:10267A000000000044442828281000000000000040
:10268A000000000092AAAAAAAA44000000000000C2
:10269A000000000044281010284400000000000038
:1026AA000000000044282828101010200000000014
:1026BA0000000000780810204078000000000000A8
:1026CA0000003020202040202020201000000000A0
:1026DA000000101010101010101010100000000050
:1026EA000000301010100810101010300000000008
:1026FA0000000000007458000000000000000A00FA
:10270A00252E3466005B5278206563686F5D3A2037
:10271A00005445545249530053636F726500474150
:10272A004D45004F56455200B608A6089608860839
:10273A0076086608560800F8E007E0FF1FF81F0051
:10274A00308440BCFF7F000001000001010000004E
:10275A00010000000000000100000001000000016B
:10276A00010000000000000001000000010000015B
:10277A00010000000000000000000001010000014B
:10278A00010000000000000100000001010000003B
:10279A00010000000000000001000001010000012A
:1027AA00000000000000000000000101010100001B
:0627BA0000000000000019
:00000001FF
